:020000040800F2
:10000000D0070020D5020008152600080D2600089C
:1000100011260008E5160008192800080000000055
:100020000000000000000000000000005D26000845
:10003000E9160008000000001926000861260008E3
:10004000EF020008EF020008EF020008EF020008CC
:10005000EF020008EF020008EF020008EF020008BC
:10006000EF020008EF020008EF020008EF020008AC
:10007000EF020008EF020008EF020008EF0200089C
:10008000EF020008EF020008EF020008EF0200088C
:10009000EF020008EF020008EF020008EF0200087C
:1000A000EF020008EF020008EF020008EF0200086C
:1000B000EF020008EF020008EF020008EF0200085C
:1000C000EF020008EF020008EF020008EF0200084C
:1000D000EF020008EF020008EF020008EF0200083C
:1000E000EF020008EF020008EF020008EF0200082C
:1000F000EF020008EF020008EF020008EF0200081C
:10010000EF020008EF020008EF020008EF0200080B
:10011000EF020008EF020008EF020008EF020008FB
:10012000EF020008EF020008EF020008EF020008EB
:10013000EF020008EF020008EF020008EF020008DB
:10014000EF020008EF020008EF020008EF020008CB
:10015000EF020008EF020008EF020008EF020008BB
:10016000EF020008EF020008EF020008EF020008AB
:10017000EF020008EF020008EF0200080000000094
:10018000EF020008EF02000800F002F800F092F819
:100190000AA090E8000C82448344AAF10107DA45E2
:1001A00001D100F087F8AFF2090EBAE80F0013F0A2
:1001B000010F18BFFB1A43F0010318474C3400002D
:1001C0006C340000103A24BF78C878C1FAD85207BE
:1001D00024BF30C830C144BF04680C6070470000C1
:1001E0000023002400250026103A28BF78C1FBD840
:1001F000520728BF30C148BF0B6070476E2900F01E
:10020000FB81702900F03D83662903F0B8806529E1
:1002100003F0B580672903F0B280612903F0B18053
:1002200003681B0A28BF41F08001692900F0A881FA
:10023000642900F0A581752900F0A2816F2900F0E2
:10024000CB82782900F00983E92900F06582E4294E
:1002500000F06282F52900F05F82EF2900F0C88289
:10026000F82900F008830368DB0928BF41F080010A
:10027000632901F00980732901F00E80E32901F060
:100280001980F32901F01E80002070471FB503F08C
:1002900069F801F06DF804000020002103F04CF82B
:1002A000401C60600020002103F030F8E0601FBDBA
:1002B00010B510BD01F02EF81146FFF7E7FF02F070
:1002C000ADFA01F00BF903B4FFF7F2FF03BC01F044
:1002D00051F900000948804709480047FEE7FEE75A
:1002E000FEE7FEE7FEE7FEE7FEE7FEE7FEE7FEE7E6
:1002F00004480549054A064B7047000015270008C9
:1003000089010008D0010020D0070020D003002080
:10031000D003002053EA020C00F069802DE9F04B75
:100320004FF00006002B1FBFB3FA83F503FA05F464
:1003300024FA05F65E4012BF1643B2FA82F502FABD
:1003400005F4C5F120051EBF22FA05FC44EA0C04A1
:10035000203556EA044C4FEA144418BF641C4FF091
:1003600000084FF00009904271EB030C39D30029CB
:1003700019BFB1FA81F701FA07F6B0FA80F700FA6F
:1003800007F6C7F120071EBF20FA07FC46EA0C0655
:100390002037B6FBF4FCA7EB0507103F07F01F0B57
:1003A000CBF120062CFA06F60CFA0BFB44BFB34641
:1003B0000026202FA4BF5E464FF0000B5BEA060C20
:1003C00008BF4FF0010B19EB0B0948EB0608ABFB1C
:1003D000027C06FB02CC0BFB03CCC01B71EB0C01B7
:1003E000C1E70B46024641464846BDE8F08B13B5CF
:1003F000084318BF4FF0FF300146AFF30080BDE85F
:100400001C4070471CB50C46064B7B446946009067
:10041000204600F00AF904460020694600F018F969
:1004200020461CBD4302000010B5431C02E010F83A
:10043000011B71B18107FAD14FF0013202C88C1A49
:100440008C4314EAC211F9D0C01A0A0603D0C01EA8
:1004500010BDC01A10BD0A0401D0801E10BD0902D3
:10046000FCD0401E10BD4FF0000200B5134694466C
:100470009646203922BFA0E80C50A0E80C50B1F1FC
:100480002001BFF4F7AF090728BFA0E80C5048BF10
:100490000CC05DF804EB890028BF40F8042B08BFAE
:1004A000704748BF20F8022B11F0804F18BF00F8AA
:1004B000012B704770477047704770B504468569D7
:1004C0000068C10601D5302600E02026C00707D00D
:1004D00070BDD4E9012130469047206A401C20625B
:1004E0006D1EF6D570BD70B5044685690078C007ED
:1004F00007D170BDD4E9012120209047206A401C1B
:1005000020626D1EF6D570BD09684A0501D540B25E
:100510007047C905FCD500B2704709684A0501D586
:10052000C0B27047C905FCD580B2704770B50C46A3
:100530000546012A05D02878800600D5EA690023FF
:1005400002E0012305E05B1C934202D2E05C00283C
:10055000F9D1A869E618C01AA861286A1844286267
:100560002846FFF7AAFF04E0D5E9012114F8010BA2
:100570009047B442F8D32846FFF7B5FF70BD00009E
:100580002DE9F0410646002410687529314616A56C
:1005900010D0FFF7B9FF002802DA404213A507E0A8
:1005A00031688A0701D512A502E0490704D511A5D3
:1005B000012401E0FFF7B1FF00210A2206F1240720
:1005C00009E0B0FBF2FCB0FBF2F302FB1C003030A0
:1005D00078541846491C0028F3D123462A46304651
:1005E000BDE8F04100F061BA000000002D000000FD
:1005F0002B0000002000000011680268006A53050B
:1006000001D508700AE0D30501D5088006E013067D
:1006100003D5C217C1E9000200E00860012070475D
:1006200001694A1C02610878704700B58FB0CDE9B6
:1006300001310021059105497944CDE903101146A6
:10064000684600F029F90FB000BD0000E5FFFFFF8C
:100650000A6802F8010B0A60704700002DE9FF5F8D
:1006600015468A460446DFF8AC80F8440027D8E9EE
:1006700000103E46CDE9001010E03AF816106A4628
:1006800002A800F023FE411C07D02178890603D57B
:10069000E269391891420DD80744761C207880060B
:1006A00002D5E069B84205DDAE42E6DB3AF8160055
:1006B0000028E2D1A069C01BA0612046FFF7FDFE23
:1006C000D8E90010CDE90010002017E03AF8181022
:1006D0006A4602A800F0FAFDB0F1FF3F81460BD058
:1006E00000250DF1080B05E0D4E901211BF80500F8
:1006F00090476D1C4D45F7D308F10100B04280468C
:10070000E4DB206A384420622046FFF7ECFEBDE8B7
:10071000FF9F00001A2D00002DE9F0418046D21DF8
:1007200022F007020025D2E90002F52915A614D00F
:10073000011E72F1000106DA0023D0EB030063EB27
:10074000020211A608E0D8F800108B0701D50FA609
:1007500002E0490701D50EA601251146002408F143
:10076000240704E000F05CF930323A55641C50EA8A
:100770000102F7D12B46324621464046BDE8F04102
:1007800000F093B9000000002D0000002B000000D5
:100790002000000030B4002100F1240408E002F041
:1007A0000705D208303542EA4372DB086554491C1C
:1007B00052EA0305F3D10468002310A2250708D5E7
:1007C00004F020040C4304D0C46901230CA2641E6D
:1007D000C46130BC00F069B910B504462146106808
:1007E000FFF79BFE02462046BDE810400023D1E7FC
:1007F000D21D22F00701D1E90023CBE70000000061
:1008000030000000F0B40D460188090502D5214CE6
:100810007C4402E01F4C7C440E34002100F124068D
:1008200008E002F00F071209E75D42EA03721B09B4
:100830007754491C52EA0307F3D1027800231207C8
:1008400004D5702D06D009B1022311342246F0BC24
:1008500000F02BB901231034F8E770B504460D46BB
:1008600021461068FFF759FE024629462046BDE89A
:1008700070400023C6E7D21D22F00703D3E900230E
:10088000C0E70368126843F0200303600823C361D4
:100890000023B7E77C2B00002DE9F05F8946044672
:1008A0004FF0000ADFF874B1FB44C0F820A02046E6
:1008B000E1688847002874D0252806D0D4E90121B2
:1008C0009047206A401C2062F1E700265F462046E0
:1008D000E16888472028054607DB312D05D27819C5
:1008E00010F8200C08B10643F1E7B00701D526F057
:1008F0000406C4F81CA00027C4F818A02A2D09D0AB
:10090000284602F0FBFC38B304EB8708303DC8F8FA
:10091000185019E059F8041B204604EB8702916136
:10092000E1688847012F054618D1E069002820DAE0
:1009300026F020061DE0D8F8180000EB800005EB3B
:1009400040003038C8F818002046E168884705465E
:1009500002F0D4FC0028EED1012F0AD02E2D08D1B0
:100960002046E16888477F1C0546022F46F0200696
:10097000C4DBA069002803DA404246F00106A0610A
:10098000F00701D026F010066C2D0BD0682D09D091
:100990004C2D39D06A2D35D0742D35D07A2D33D0E9
:1009A00016E038E0E1682F4620468847B842054601
:1009B00009D16C2F26D04FF48060E16806432046B1
:1009C0008847054604E06C2F1AD04FF48070064328
:1009D0000DB3A5F14100192802D8203546F4006670
:1009E0004A462946204626604E46FFF707FC80B15E
:1009F00001280BD0F61D26F0070000F1080956E784
:100A00004020E4E78020D8E70020D6E706F104097B
:100A10004DE7284652E7206ABDE8F09F0C2B000006
:100A200030B5B0F10A0271F100034FEA900E4EEAC0
:100A3000817EB0EB0E0061EB91014FEA101E4EEA91
:100A4000017E10EB0E0041EB11114FEA102E4EEA21
:100A5000016E10EB0E0041EB11214FEA104E4EEAF1
:100A6000014E10EB0E0041EB1141401841F1000125
:100A70004FEAD00040EA41704FEAD1014FEA8104C9
:100A800044EA907410EB800544EB01046D1944EBCB
:100A90000404521BA3414FF0000348BF0A3200D5A3
:100AA00030BD401C41F1000130BD2DE9F0470D463D
:100AB00099469246044600F124080168880604D548
:100AC000E06921F01001216000E00120A84201DD71
:100AD000471B00E00027A1697A1902EB0900081AF8
:100AE000A0612078C00602D42046FFF7E6FC00266D
:100AF00008E0D4E901211AF806009047206A401C5A
:100B0000761C20624E45F4DB2078C0060AD52046CC
:100B1000FFF7D3FC06E0D4E9012130209047206A9A
:100B2000401C2062381EA7F10107F4DC07E0D4E97D
:100B3000012118F805009047206A401C2062281EF9
:100B4000A5F10105F3DC2046FFF7CDFC2078000677
:100B500002D50220BDE8F0870120FBE72DE9FF4F19
:100B60000C461E464FF0FF378BB0D2E90001DDF88E
:100B700060800A908A46C1F30A5505B93D460021B6
:100B800008464FF00000BAF1000F00F4400005DA0B
:100B900000EB80004FF4400101EA50004FEA905909
:100BA000B9F1010F00DDB9460A9850EA4A000ED0AB
:100BB00044F61050A5F2FF3545432F14B8F1000F4D
:100BC0001ED07542291E1EDDC9F100021CE0B8F1DD
:100BD000010F4FF0000001D0302103E0F24305E0A7
:100BE0002154401CB042FBDB30460022002121543E
:100BF0000B99C1F80880C1E900200FB0BDE8F08F63
:100C0000BD1B6D1CDEE74A4600DA694206A800F00B
:100C1000F3FB06AB93E8070003AB83E807005046FD
:100C20000A9901F08BFF8DE80700A0F500501F38EE
:100C300000900398002D0ADD42F21F014A46084445
:100C4000002303A90390684602F0F4F909E0A0F537
:100C500000504A461F38002303A90390684602F05B
:100C6000FEF98DE807000004000C03D04FF0FF30C0
:100C7000410800E01046B8F1000F03D000220092B6
:100C800015461EE0751E05D4FFF7CAFE30326255C8
:100C90006D1EF9D5B3460122084302D000227F1C05
:100CA00004E02078302801D100227F1E002A099715
:100CB00084D01DE0112D07DAFFF7B2FE3032625505
:100CC0006D1C50EA0102F5D1084302D00098C8B16A
:100CD0000EE00021681E05E0235C625C6354225430
:100CE000401E491C8142F7DBAB46A81B401E099001
:100CF000002004F80B000B98099AC0F80880C0E99E
:100D0000002B7AE711264FF0000857E72DE9F04F46
:100D100088460446D21D22F0070191B0D1E90001B6
:100D2000CDE90A0102F0D2FA02460B98C00F01D0B9
:100D30002D2007E02068810701D52B2002E020212B
:100D400001EAC000032A099001D0072A05DB034607
:100D50004146204600F010FB0BE12078800601D5CB
:100D6000E06900E00620B8F1650F814606D0B8F1D1
:100D7000660F18D0B8F1670F70D131E00020B9F1DB
:100D8000110F009001DB112301E009F101030AAA10
:100D900001A90CA8FFF7E2FEDDE90C70002609F1BD
:100DA0000105834647E001204B4600904FF0004785
:100DB0000AAA01A90CA8FFF7D1FEDDE90DB00C9934
:100DC0005D46002610B909F101000D18B9EB0500C8
:100DD00003D4C0F1FF3609F10105A5EB09002BE0B2
:100DE000B9F1010F01DA4FF001090020B9F1110F3B
:100DF0000090484601DD112300E003460AAA01A93C
:100E00000CA8FFF7ABFEDDE90C704D4600268346CB
:100E1000207800070AD4AB4500DA5D4601A8012D11
:100E200004DD411911F8011C302907D04F4502DAC1
:100E300017F1040F04DA012082460FE06D1EEEE781
:100E4000002F02DCED1B3E4403E0781CA84200DDCD
:100E50007D1CB81B00F1010A4FF000472078000705
:100E600003D4AA4501DB4FF0FF3A0021B7F1004F50
:100E70000DF143088DF8431024D002202B23002FBE
:100E800001DA7F422D230A21021EA0F1010000DCBD
:100E90005FB197FBF1FC97FBF1F201FB1C7C17465D
:100EA0000CF1300C08F801CDEEE7A8F10100037059
:100EB0002188090501D5452100E06521A0F101083F
:100EC00000F8011C09980FA9A1EB0807FF1D00B14C
:100ED0000120411901EBEA70A1693844081A401E4B
:100EE000A0612078C00602D42046FFF7E6FA0998F0
:100EF00028B1D4E901219047206A401C2062207863
:100F0000C00622D52046FFF7D8FA1EE0002E04DBEB
:100F1000B34502DD01A8805D00E03020D4E9012165
:100F20009047206A401C2062761CAAF101005FEA0B
:100F3000000A0AD100F01CFAC0680168405CD4E9DC
:100F400001219047206A401C2062281EA5F101055E
:100F5000DCDC07E0D4E9012118F8010B9047206A96
:100F6000401C2062381EA7F10107F3DC2046FFF782
:100F7000BAFA032011B041E62DE9F04F04460D46C0
:100F8000D21D22F0070089B0D0E9009748463946C3
:100F900002F09CF90246F80F01D02D2307E02068EB
:100FA000810701D52B2302E0202101EAC0038DF83F
:100FB00020300BB1012000E00020032A824601D03E
:100FC000072A04DB2946204600F0D6F93FE12078C5
:100FD000800601D40D2500E0E569C7F30A560D2D02
:100FE00049DA00214FEA175B08464FF00000002F56
:100FF00000F4400007DA00EB80004FF4400100EB02
:10100000D07001EA60008115012901DD4FF0FF3148
:1010100000224FEA850CBCF1180F06D31346ACF141
:1010200018004FF08052C24003E04FF4801323FABF
:101030000CF30CF10C0CBCF1200F04D3ACF1200C20
:1010400009FA0CF001E007FA0CF000294FF0004813
:1010500001DD18B90FE00ED140450CD319EB0209A0
:101060005F4121B9404502D19F4329EA0209BBEB08
:10107000175F00D0761C2088000502D57B48784495
:1010800002E07A487844193808AA302302F80A3076
:10109000037C0AF10101002E0AF1020A53546A4648
:1010A00002DC4FF0300101E04FF031014FF0010858
:1010B0008DF8001002D0A6F2FF3603E059EA47018E
:1010C00000D06B4E002D02DC2178090704D54FF0CB
:1010D00002082E218DF80110C44600210BE0C7F351
:1010E00003433F01C35C491C6D1E02F8083005290B
:1010F00008F1010801DA002DF1DC00210CE000EB21
:101100001973491C1B786D1E082902F808304FEA34
:10111000091908F1010801DA002DF0DC21688B06BD
:1011200002D516E0A8F10108E04505DD02EB080351
:1011300013F8013C302BF5D0B8F1000F09DD02EBBC
:10114000080313F8013C2E2B03D1090701D4A8F1A1
:101150000108002D05DD3E2102F808106D1E08F182
:101160000108407C002E02F8080008F1010804DAAA
:101170002D20764202F8080002E02B2002F8080039
:101180000A214FF47A70864208F101080BDB96FBC6
:10119000F0F3303302F8083096FBF0F308F1010861
:1011A00000FB136601E0642E0CDB642096FBF0F379
:1011B000303302F8083096FBF0F308F1010800FB29
:1011C000136601E00A2E06DB96FBF1F0303002F8E0
:1011D000080008F1010896FBF1F001FB10603030C7
:1011E00002F80800A16908F1010808EB050202EB0A
:1011F0000A00081AA0612078C00602D42046FFF732
:101200005CF9216A08AE01EB0A00206204E0D4E92F
:10121000012116F8010B9047BAF1010AF7D22078A4
:10122000C00602D52046FFF748F96E4609E016F8D9
:10123000010B3E280FD0D4E901219047206A401CC1
:101240002062B8F10108F2D22046FFF74CF909B04C
:101250000320BDE8F08F206A2844206203E0D4E92F
:101260000121302090476D1EEBD3F8E75A23000090
:1012700002FCFFFF10B5436913B1AFF3008001E03A
:10128000FFF754F9012010BD127800F124010A7013
:1012900000224A700122EDE711684FF0FF32E9E7C2
:1012A00010B5436913B1AFF3008001E0FFF7D6F941
:1012B000012010BD128800F1240182840022C28422
:1012C0000122EDE711684FF0FF32E9E72DE9F04127
:1012D00016460C46054600F043F8036893F80101F2
:1012E000012807D0FF2C12D8185D80B101202C7086
:1012F000BDE8F081D3F807013246214603F2071317
:10130000C7182846BC46BDE8F041002360474FF0AF
:10131000FF30EDE7754600F0EBF8AE460500694694
:10132000534620F00700854618B020B5FEF7E0FFD1
:10133000BDE820404FF000064FF000074FF00008D6
:101340004FF0000BAC46ACE8C009ACE8C009ACE813
:10135000C009ACE8C00921F007018D4670470000C4
:1013600010B500F005F8001D10BD00BFCD1F000036
:1013700000487047300000202DE9F0411F46044628
:1013800003260168072A01F4006004DB08B116A5F2
:1013900005E016A503E008B115A500E015A521F0AC
:1013A00010002060A069C01EA0610FB1401EA061A6
:1013B0002046FFF782F84FB1D4E901213846904723
:1013C000206A401C2062C01C206206E0206AFAE706
:1013D000D4E9012115F8010B9047761EF8D220467A
:1013E000FFF781F8BDE8F0814E414E006E616E005E
:1013F000494E4600696E66002DE9F0478146164663
:101400008AB0354878440DC88DE80D0032487844DC
:10141000801C03AC0DC884E80D0041F69B300844E5
:10142000372190FBF1F290FBF1F5A5F1800501FB6E
:1014300012041B3C02D56442012000E00020DFF8CA
:1014400098A080460027FA44AAF1BE0A0EE0E00701
:101450000AD03246684607EB470101230AEB8101B7
:1014600001F0FDFD8DE8070064107F1C002CEED11B
:10147000194F7F44AE3F19E0E80715D007EB041081
:101480000DF1180A90E80E008AE80E00C068F042DC
:1014900001D1981908903246012306A903A801F04A
:1014A000DEFD03AB83E807006D10641C002DE3D163
:1014B0004FF0010332466946B8F1000F03A802D08D
:1014C00001F0B8FD01E001F0CAFDC9E90001C9F869
:1014D00008200AB0BDE8F0876420000010B504467B
:1014E000AFF300802046BDE81040FEF7ECBE0000E0
:1014F000004870471000002030B44FF0013C50F815
:10150000042B51F8043BCCFA52F4D51A20D1FCB983
:1015100050F8042B51F8043BCCFA52F4D51A17D1E9
:10152000B4B950F8042B51F8043BCCFA52F4D51A54
:101530000ED16CB950F8042B51F8043BCCFA52F49C
:10154000D51A05D1002CDAD030BC4FF0000070471E
:1015500029BAB1FA81F111F01801D1F120008440CB
:10156000F2D1CA40CB4012F0FF0213F0FF0330BCAF
:10157000D01A704701491820ABBEFEE726000200D2
:101580007047000084B040F2BC0440F27000C2F228
:101590000004C2F2000000F10806671C0DF1080A01
:1015A00004E000BF40A001F039F800BF2046C82188
:1015B000FEF759FF3046214601224FF0FF3300F07D
:1015C00003FE2278304639464FF0FF3300F0FCFD31
:1015D0006078A0F152010A29E8D35128E2D143F200
:1015E0002150C0F6000001F019F82578281F00905E
:1015F00047D0281950F8038C40F27000C2F2000066
:1016000051460122029500F071F8404520D143F285
:10161000C640C0F6000001F001F840F2A510ADF898
:101620000D0030460DF10D0102224FF0FF3300F0A6
:10163000A9FE10208DF8070043F2A550C0F6000067
:101640001021102200F0EAFF30460DF1070124E0DE
:10165000A5F1050B4FF00009CB4512D004EB0900B2
:1016600040785146029040F27000C2F20000012220
:1016700000F03CF8404509F10109EDD100988145A1
:10168000C5D343F29C40C0F6000000F0C7FF7F20A6
:101690008DF80F0030460DF10F0101224FF0FF339E
:1016A00000F070FE82E700BF424C5F444542554760
:1016B0005F4D53473A20496E76616C696420636FD1
:1016C0006D6D616E6420636F64652072656365692A
:1016D0007665642066726F6D2074686520686F732C
:1016E000740A0000FEE7000070470000B0B58646AF
:1016F00002208EF80500DEF8000042B1531E032BD5
:1017000002F0030C08D20022BCF1000F1AD10068CD
:1017100001218EF80510B0BD22F00302A1F11003E3
:101720005442002253F8105F043A05605D68944209
:1017300005609D680560DD680560F3D15242BCF12B
:10174000000FE4D051F82230BCF1010F0360DED06D
:1017500001EB82014A68BCF1020F02601CBF89687C
:101760000160006801218EF80510B0BD002804BF9B
:101770000120704710B50446407918B1012060710E
:10178000002010BD00202071204600F005F8012047
:101790006071002010BD000081B043F63001C4F23A
:1017A00002010068A1F50362904201D001B07047C8
:1017B00000200090086840F480500860086800F439
:1017C00080500090009801B0704700002DE9F04F64
:1017D00082B000F13E4241F6004502F1FF77C4F2CB
:1017E0000205082243F6004E4FEAB726A84208BF7A
:1017F0000722C4F2010E072E38BF4FEAB722012597
:10180000002600274FF00008009208E008F10108C8
:101810000437B8F1100F06F1020600F0A7800C683B
:1018200005FA08F914EA090FF0D0D1F804B0032240
:101830000BF0030CACF10104B240012C6FEA020A78
:1018400010D88268CC6802EA0A02B440224382605F
:101850004268CBF3001422EA090204FA08F4224396
:10186000426005E0BCF1030F02D14FF0030C20E011
:10187000C2688C6802EA0A02B4402243BCF1020F3B
:10188000C26016D16FF0030202EA58020244D2F895
:1018900020C007F01C050F230C69AB402CEA0303A2
:1018A00004FA05F52B431362D1F804B001250BF0BF
:1018B000030C02680CFA06F302EA0A021A431BF44C
:1018C000403F0260A2D0002243F644030192C4F2DA
:1018D00002031A684FF6084C42F480421A601A68F4
:1018E000CFF6FF7C02F480420192019A28F00302B5
:1018F000724452F80C3007F00C050F24AC40A3439F
:10190000009C04FA05F52B4342F80C30DEF8082061
:101910004B6842EA090543F60C4CDC0258BF22EA48
:101920000905CEF80850C4F2010CDCF800209C0236
:1019300042EA090558BF22EA0905CCF80050DEF852
:1019400004209C0342EA090558BF22EA0905CEF8A3
:101950000450DEF80020DB0342EA090558BF22EA02
:101960000905CEF80050012550E700BF02B0BDE8E0
:10197000F08F00000069084018BF01207047000088
:10198000002A08BF090481617047000040F2C810B6
:10199000C2F200000068704740F2000040F2C81137
:1019A000C2F20000C2F2000100780A681044086028
:1019B0007047000080B543F60040C4F202000168A1
:1019C00041F400710160016841F4806101600168C7
:1019D00041F480710160032000F076F8002000F0EF
:1019E00005F800F027F8002080BD000070B540F237
:1019F0000006C2F2000640F208013278C2F200018D
:101A00004FF47A730968B3FBF2F20446B1FBF2F1CA
:101A1000084600F031FB0F2C4FF0010508D838B90B
:101A20004FF0FF3021460022002500F021F87460BD
:101A3000284670BD82B0002043F640010190C4F2F8
:101A400002014A6842F480424A604A6802F48042D5
:101A50000192019A0090086840F080500860086880
:101A600000F0805000900098072002B000F02CB8E1
:101A700010B54EF60C5CCEF2000CDCF80030C3F36F
:101A8000022E8EF00704042C28BF0424BEF10303A9
:101A90004FF0FF3E0EFA04F438BF0023A1439940F3
:101AA0000EFA03F39A43114300F00F0200F1604372
:101AB0000901043A03F564436244002848BF02F177
:101AC0000C03197010BD00004EF60C51CEF200014F
:101AD0000A684FF6FF031A4060F30A2242F0806062
:101AE00040F0FD70086070472DE9F041002800F0DB
:101AF0008B8043F60808C4F202080446D8F8F803BD
:101B00000D4600F00700884207D288F8F853D8F84D
:101B1000F80300F00700A84276D12068810717D5A6
:101B2000410705D5D8F8001041F4E051C8F800107D
:101B3000010705D5D8F8001041F46041C8F800103D
:101B4000D8F80010A26821F0F0011143C8F8001085
:101B5000C0073FD1D8F8F80300F00700A84207D922
:101B600088F8F853D8F8F80300F00700A8424BD1E2
:101B70002068410707D5D8F80010E26821F4E05149
:101B80001143C8F80010000708D5D8F800002169F3
:101B900020F4604040EAC100C8F8000000F07CF882
:101BA000D8F8001043F28442C1F30311C0F60002DA
:101BB000515C40F2080220FA01F140F20400C2F246
:101BC00000000068C2F200021160FFF70FFF002062
:101BD000BDE8F0816068811E022907D258F8081C10
:101BE00089015CBF0120BDE8F08111E0012807D127
:101BF00058F8081C89035CBF0120BDE8F08107E0AC
:101C000058F8081C890703D40120BDE8F08100BF03
:101C1000D8F8001021F003010843C8F80000FFF7CE
:101C2000B5FE064641F28837D8F80000616800F03A
:101C30000C00B0EB810F8DD0FFF7A8FE801BB842DF
:101C4000F2D90320BDE8F08140F2080043F6080114
:101C5000C2F20000C4F202010068096843F2944233
:101C6000C1F38221C0F60002515CC84070470000F9
:101C700040F2080043F60801C2F20000C4F202017B
:101C80000068096843F29442C1F34231C0F6000291
:101C9000515CC8407047000010B543F60404C4F21C
:101CA0000204606800F00C0142F200400829C0F212
:101CB000F40007D0042918BF10BD41F20020C0F283
:101CC0007A0010BD216801F03F02216823684902B3
:101CD000C3F3881106D4A1FB00010023FEF71AFB11
:101CE00007E000BF41F20020C0F27A004843B0FB99
:101CF000F2F021680222C1F3014102EB4101B0FB85
:101D0000F1F010BD2DE9F04182B0002868D0044602
:101D1000007843F60006C007C4F202060BD0B06894
:101D200000F00C00042840F09F803068800302D54A
:101D30006068002854D0207880071AD5B06810F069
:101D40000C0F09D0B06800F00C00082840F0A68005
:101D50007068400200F1A2803068800702D5E06818
:101D600001283DD13068216920F0F80040EAC10027
:101D700030602078000737D4207840074CD4A5691C
:101D800055B3B06800F00C00082840F0BB80012D6E
:101D900026D07068E16900F480028A4220D1216A6D
:101DA00000F03F028A421BD147F6C071626A0140CF
:101DB000B1EB821F14D1A16A4FF6FF73C903994397
:101DC00000F44032A1F580318A4209D1E16A00F085
:101DD0007060B0EB016F03D1002002B0BDE8F0816C
:101DE000012002B0BDE8F0816069002840F20000E7
:101DF000C4F2472076D00121C0F8801EFFF7C6FD4F
:101E0000054600BF706F8007B6D4FFF7BFFD401BCB
:101E10000228F7D9DDE000BF306C10F080580AD1FD
:101E200000200190306C40F080503064306C00F045
:101E300080500190019847F20007C4F2000738680B
:101E4000C00541D4386840F480703860FFF79EFDCB
:101E5000054600BF3868C00536D4FFF797FD401B24
:101E60000228F7D9B5E000BFB06800F00C000828E0
:101E700003D1706840023FF558AF6068B0F5803F0D
:101E800007D0B0F5A02F40F08D80306840F480205E
:101E90003060306840F4803030608DE0E0680028C9
:101EA00052D00020C4F2472001210160FFF76EFDEF
:101EB000054600BF306880073FF554AFFFF766FD69
:101EC000401B0228F6D984E0A068012805D0052827
:101ED0004ED1306F40F004003067306F40F00100A9
:101EE00030674FE00021C0F8801EFFF74FFD054628
:101EF000706F80077FF540AFFFF748FD401B022859
:101F0000F6D966E00027C4F2472700203866FFF7BD
:101F10003DFD022D05460BD1306880015ED5FFF7EF
:101F200035FD401B02284FF00300F5D955E700BFEF
:101F3000306880017FF550AFFFF728FD401B022875
:101F40004FF00300F4D948E70020C4F247200021F5
:101F50000160FFF71BFD0546306880077FF509AF7C
:101F6000FFF714FD401B02284FF00300F4D934E7BB
:101F7000316F002821F001013167316F21F0040138
:101F800031674DD0FFF702FD054641F2883700BFAB
:101F9000306F800756D4FFF7F9FC401BB842F7D9E1
:101FA00017E000BF3168002821F4803131603168CA
:101FB00021F4802131604FD0FFF7E8FC054600BFD7
:101FC000306880033FF5B7AEFFF7E0FC401B6428A4
:101FD000F6D9032002B0BDE8F08100BF04F11C0572
:101FE0002FCD084340EA8210D9034FF6FF72914388
:101FF000A1F5803140EA0560084370600120386631
:10200000FFF7C4FC044600BF306880013FF5E4AE32
:10201000FFF7BCFC001B02284FF00300F4D9DCE6FC
:10202000FFF7B4FC054641F2883700BF306F8007E8
:1020300008D5FFF7ABFC401BB8424FF00300F5D9C1
:10204000CBE600BFB8F1000F7FF499AE306C20F002
:102050008050306493E600BFFFF798FC054600BF50
:10206000306880037FF567AEFFF790FC401B642863
:102070004FF00300F4D9B0E6411E0020B0EB116F21
:102080001CBF012070474EF21002CEF200025160D8
:102090004EF62351CEF20001F0230B700721906021
:1020A00011607047002804BF0120704710B5044636
:1020B00090F83D0028B9002084F83C00204600F04C
:1020C00021F8242084F83D002068C16821F40051E3
:1020D000C160204600F028FB2068016921F490418E
:1020E0000161416921F02A014161C16841F4005157
:1020F000C16000202021206484F83D1084F83E1047
:1021000010BD000080B586B0006844F60002C4F23D
:10211000000200219042CDE90411CDE902110191A4
:1021200024D044F20041C4F20001884249D1002089
:1021300043F630010090C4F202010A6942F4003211
:102140000A610A6902F400320092009A009008685D
:1021500040F00100086008680C2100F001000090C8
:1021600000980020C4F202001FE000BF43F63000D8
:102170000091C4F20200026942F480220261026905
:1021800002F480220092009A0091016841F004015B
:10219000016000684FF4406100F004000090009876
:1021A0000020C4F2020000F50060019102210291BA
:1021B00000210391032104910721059101A9FFF753
:1021C00005FB06B080BD00002DE9F04381B0044658
:1021D00090F83E0020280DD10E4600294FF0010056
:1021E00000F0CC801746002A00F0C88094F83C002C
:1021F000012803D1022001B0BDE8F083012084F85A
:102200003C00002022211D46206484F83E102063FB
:10221000FFF7BCFBA785E785A1680746B1F5805F9E
:1022200001D1206910B1B046002601E04FF000084E
:10223000002084F83C00E08D002800F09B8005F130
:1022400001090DE040684FF000086FF35F2026F8A9
:10225000020BE08D0138E085E08D002800F08A80D7
:102260002068016889060DD4B9F1000F18D04DB36C
:10227000FFF78CFBC01BA84224D8206801688906A0
:10228000F6D500BFB8F1000FDCD0A168B1F5805FD2
:1022900014D009B9216989B1406800F07F000EE0CF
:1022A00001688906EED4016889065CBF01685FEAAF
:1022B0008161E7D401688906F2D5E3E7406808F850
:1022C000010BC6E7206850E8030F216820F4D070A6
:1022D00041E80302E2B1206850E8030F216820F4CE
:1022E000D07041E803029AB1206850E8030F2168DA
:1022F00020F4D07041E8030252B1206850E8030F87
:10230000216820F4D07041E80302002ADAD100BF2E
:10231000206850E8050F216820F0010041E805021F
:10232000DAB1206850E8050F216820F0010041E88B
:10233000050292B1206850E8050F216820F00100E5
:1023400041E805024AB1206850E8050F216820F0F5
:10235000010041E80502002ADAD1202084F83D007E
:1023600084F83E00002084F83C00032001B0BDE862
:10237000F08300BF202084F83E00002001B0BDE8BB
:10238000F08300002DE9F04381B0044690F83D0051
:1023900020280DD10F4600294FF0010000F0DD800C
:1023A0001646002A00F0D98094F83C00012803D199
:1023B000022001B0BDE8F083012084F83C00002039
:1023C000206421201D4684F83D00FFF7DFFAA68433
:1023D000E684A1680646B1F5805F03D12069002834
:1023E00000F01081B8460027002084F83C00E18C02
:1023F0002068002900F0908005F101090DE000BF80
:10240000B8F1000F28D018F8011B4160E18C0139A8
:10241000E184E18C002900F07F8001680906EFD497
:10242000B9F1000F0AD0FDB1FFF7B0FA801BA84246
:102430001AD8206801680906F6D5E1E7016809069F
:10244000DED4016809065CBF01685FEA0161D7D488
:1024500001680906F2D5D3E737F8021B4FF00008F0
:102460006FF35F21D1E700BF206850E8030F2168B8
:1024700020F4D07041E80302BAB3206850E8030F9B
:10248000216820F4D07041E8030272B3206850E85C
:10249000030F216820F4D07041E803022AB32068BA
:1024A00050E8030F216820F4D07041E80302002AAD
:1024B000DAD11AE0206850E8050F216820F0010009
:1024C00041E80502DAB1206850E8050F216820F0E4
:1024D000010041E8050292B1206850E8050F21682B
:1024E00020F0010041E805024AB1206850E8050FDC
:1024F000216820F0010041E80502002ADAD12020FD
:1025000084F83D0084F83E00002084F83C0003205D
:1025100001B0BDE8F08300BF0168490619D4FDB1E0
:10252000691C0DD10168490613D4016849065CBFD6
:1025300001685FEA41610CD401684906F2D508E000
:10254000FFF724FA801BA8420AD8206800684006DA
:10255000F6D5202084F83D00002001B0BDE8F083CE
:10256000206850E8030F216820F4D07041E803028E
:10257000E2B3206850E8030F216820F4D07041E8EE
:1025800003029AB3206850E8030F216820F4D0704A
:1025900041E8030252B3206850E8030F216820F499
:1025A000D07041E80302002ADAD11FE0206850E829
:1025B000050F216820F0010041E80502002A9ED0A5
:1025C000206850E8050F216820F0010041E805026D
:1025D000002A3FF494AF206850E8050F216820F0EE
:1025E000010041E80502002A3FF489AF206850E865
:1025F000050F216820F0010041E80502002AD5D12D
:102600007DE700BF4FF00008EEE60000FEE70000A7
:10261000FEE70000FEE700007047000083B010B541
:1026200095B0844617A801AC0EC017AA2046614693
:102630000092FDF7E7FE2046FDF7F6FE82B240F27B
:102640008410C2F2000021464FF0FF33FFF79AFEDC
:1026500015B0BDE8104003B070470000704700009F
:10266000FFF79AB9B0B592B0002443F640000B943E
:10267000CDE90944CDE907440594CDE90344CDE90A
:1026800001440094C4F202000168022541F0805127
:102690000160006800F080500090009847F2000050
:1026A0000094C4F20000016841F4804101600068B8
:1026B00000F48040009000980120099010200A90BA
:1026C00008200E9032200F900420109007201190C7
:1026D00006A80695CDE90C54FFF714FB20B1EFF3E3
:1026E000108072B6FEE700BF0F20CDE901054FF460
:1026F000A05004904FF48050059001A8002103944D
:10270000FFF7F2F920B1EFF3108072B6FEE700BFD9
:1027100012B0B0BD4EF68850CEF20000016841F410
:10272000700101607047000010B504460068D4E9EC
:1027300002C22369016921F44051114301616269B8
:1027400043EA0C01E3691143C268194349F20C637F
:102750009A431143C1604169A26921F4407141F279
:102760000043114340F48062C4F201039A42416184
:1027700002D1FFF77DFA01E0FFF766FAE1696368CD
:102780001922B1F5004FA0FB020123D15A00DB0F43
:10279000FDF7C0FD48F21F51C5F2EB11A0FB01236C
:1027A0005A094FF69C73C0F6FF7303F1805302FB86
:1027B0000300322303EBC000A0FB01014FF4F870CB
:1027C00000EA111000EB0210C1F342110844216825
:1027D000886010BD9A009B0FFDF79CFD48F21F51C9
:1027E000C5F2EB11A0FB01235A094FF69C73C0F60A
:1027F000FF7302FB0300322303EB0010A0FB010177
:10280000F02000EA511000EB0210C1F3431108441C
:102810002168886010BD0000FEE7000088B040F22B
:102820000008C4F20208FFF7C5F8FFF71BFF0027F6
:1028300043F6300007970297C4F20200016808F5DA
:10284000805541F0100101600168002201F0100183
:1028500002910299029701684FF0080941F00401C2
:102860000160016801F00401029102990297016878
:1028700041F080010160016801F08001029102993C
:102880000297016841F001010160016801F0010156
:10289000029102990297016841F00201016001680A
:1028A00001F00201029102990297016841F00801CA
:1028B00001600068082100F0080002900298284694
:1028C0000195FFF75DF808F5006A504601210122E5
:1028D0000124FFF755F808F540604FF2100100227F
:1028E0000090FFF74DF803AE28463146CDE903943A
:1028F000CDE90577FEF76AFF50463146CDE903443E
:10290000CDE90577FEF762FFCDF80C904FF0020B92
:102910004FF0050950463146CDE904B70697CDF88A
:102920001C90FEF753FF4FF48810CDE90407404692
:1029300031460394FEF74AFF1020CDE9030B062031
:10294000079040463146CDE90577FEF73FFFE0208E
:10295000CDE9030B40463146CDE90577CDF81C9013
:10296000FEF734FF042008F58065CDE9030728460B
:1029700031460597FEF72AFF4FF48060CDE9030B3F
:1029800028463146CDE90577CDF81C90FEF71EFFAD
:102990004FF2100003A991C1009C314620460697D2
:1029A000FEF714FF4FF48450CDE9030B0620079087
:1029B00050463146CDE90577FEF708FF4FF4007029
:1029C000CDE90307404631460597FEF7FFFE4FF479
:1029D000E050CDE9030B0A20079040463146CDE98F
:1029E0000577FEF7F3FE2020CDE9030720463146A8
:1029F0000597FEF7EBFE4FF4107003901220CDE91F
:102A0000040704200790284631460697FEF7DEFEAD
:102A10004FF49010CDE9040701983146CDF80CB081
:102A2000FEF7D4FE40F2700408F54050C2F20004F4
:102A300020602046FEF79AFE20B1EFF3108072B6B8
:102A4000FEE700BFA8F5DE3044F8080F4FF4E1368A
:102A50000C252046C4E90167C4E90377C4E905579A
:102A6000E761FFF71FFB28B1EFF3108072B600BFDC
:102A7000FEE700BF40F28410A8F5DC31C2F200008E
:102A80000022C0E90016C0E90222C0E90425C0E91D
:102A90000622FFF707FB28B1EFF3108072B600BFE4
:102AA000FEE700BF40460121FEF764FF012825D064
:102AB00043F2C350C0F60000FFF7B0FD43F2F4400C
:102AC000C0F60000FFF7AAFD48F20005C0F60005B9
:102AD0002C6843F25050C0F600002146FFF79EFDDF
:102AE00084F308886C6843F26850C0F60000214601
:102AF000FFF794FDA04700BFFEE700BF02A0FFF76D
:102B00008DFDFEF73FFD00BF424C5F4445425547F7
:102B10005F4D53473A20427574746F6E2070726532
:102B200073736564202E2E2E20676F696E67207484
:102B30006F20424C206D6F64650A0D005FEA400C07
:102B400008BF91F0000F4FEA8C234FEAC12243EAFD
:102B500051514FEA1C5018BF00F5F0404FEA3000C9
:102B600018BF41F000415FEA6C5C00F02980BCF1C5
:102B7000FF3F08BF40F080407047130C06BF1204AF
:102B80004FF0100C4FF0000C130E04BF12020CF1AA
:102B9000080C130F04BF12010CF1040C930F04BFB7
:102BA00092000CF1020CD30F04BF52000CF1010C87
:102BB00011464FF00002A0F11F00A0EB0C0070477F
:102BC00011F0004F08BF704731F000413FF4D5AF1E
:102BD0000B0C06BF09044FF0100C4FF0000C0B0E4D
:102BE00004BF09020CF1080C0B0F04BF09010CF122
:102BF000040C8B0F04BF89000CF1020CCB0F04BF37
:102C000049000CF1010CCCF1200322FA03F341EA54
:102C1000030102FA0CF2A0EB0C0000F10100704776
:102C200023F07F4720F07F4C80EA030000F0004053
:102C3000ACEB070303F57C5303F1FF032DE9804957
:102C400009B44FEA144324EA03484FEA154B25EA36
:102C50000B4E0FF2042606EB13273E7803FB0667A4
:102C6000C7F5000707FB06F64FEAD64606F102064F
:102C70004FEA543707FB066CCCF1005C4FEA1C4767
:102C80002CEA074C0CFB06F507FB06F404EB154693
:102C90004FEA961649085FEA320234BF00204FF02F
:102CA00000404FEAD13706FB07FC4FEA1C4C0CFBF7
:102CB0000BF7D21B03FB0CF761EB07010CFB0EF7C4
:102CC000B0EB074072EB17420CFB08F734BFA2EBE6
:102CD0000742B2EB074261EB17414FEA0C444FEA5F
:102CE000910706FB07FC4FEA1C4C0CFB0BF7B0EB03
:102CF000C74072EB573203FB0CF734BFA2EBC7425D
:102D0000B2EBC74261EB57310CFB0EF7B0EBC700DB
:102D100072EB57720CFB08F734BFA2EBC702B2EBA1
:102D2000C70261EB57714FEA816141EA92114FEAA4
:102D3000826242EA90124FEA806004EBCC04039F67
:102D40004FEAD13706FB07FC4FEA1C4C0CFB0BF794
:102D5000D21B03FB0CF761EB07010CFB0EF7B0EB8A
:102D6000074072EB17420CFB08F734BFA2EB074297
:102D7000B2EB074261EB17414FEA8C5504EB9C2400
:102D80004FEA910706FB07FC4FEA1C4C0CFB0BF7C4
:102D9000B0EBC74072EB573203FB0CF734BFA2EB2A
:102DA000C742B2EBC74261EB57310CFB0EF7B0EBF9
:102DB000C70072EB57720CFB08F734BFA2EBC702D7
:102DC000B2EBC70261EB57714FEA816141EA9211A0
:102DD0004FEA826242EA90124FEA806015EB4C257E
:102DE00044F100044FEAD13706FB07FC4FEA1C4CC4
:102DF0000CFB0BF7D21B03FB0CF761EB07010CFB81
:102E00000EF7B0EB074072EB17420CFB08F734BF2C
:102E1000A2EB0742B2EB074261EB17414FEA813167
:102E200041EA92414FEA823242EA90424FEA8030D0
:102E30004FEA0C7615EB1C1544F1000448EA0343F5
:102E40004EEA0B484FF0000EB2EB080C71EB030793
:102E500024BF624639464EEB0E0E4FF0000B0018B1
:102E6000524149414BEB0B0BB2EB080C71EB0307E2
:102E70007BF1000B24BF624639464EEB0E0E4FF03D
:102E8000000B0018524149414BEB0B0BB2EB080C05
:102E900071EB03077BF1000B24BF624639464EEB12
:102EA0000E0E51EA020718BF46F0010616EB0E7629
:102EB00055F1000254F1000103D5BDE88901BDE8D8
:102EC0000088BDE88901BDE80048B619524141EBD0
:102ED0000101A3F10103704780807F7E7D7C7B7AB6
:102EE0007978777676757473727171706F6E6E6DB6
:102EF0006C6C6B6A6A69686867666665646463635C
:102F000062616160605F5F5E5E5D5D5C5C5B5B5AE1
:102F10005A5959585857575656555555545453534E
:102F200052525251515050504F4F4F4E4E4D4D4DA9
:102F30004C4C4C4B4B4B4A4A4A49494948484847F4
:102F40004747474646464545454444444443434332
:102F500043424242424141419C46002B30D47700DB
:102F60002BD04FEA37071CB503B44FF010004FF0D9
:102F70001001BAF1000F06D0BCF1000FDCBF40F029
:102F8000080040F008014FF000000FBCBDE8104001
:102F90000BF1010BBBF1010F08BF5FEA170722BF5E
:102FA00012F1010211F101014FF0004143F1000360
:102FB00000F0004043EA00007047F9D35708D0E71B
:102FC00046EA06464FEA164613F1400F1FDD13F19D
:102FD000200FDFBF16430A46002120335B42BED0DC
:102FE000C3F1200746EA06464FEA164602FA07F7FB
:102FF00046EA070622FA03F2C3F1200701FA07F7AF
:1030000042EA070221FA03F14FF00003A7E746EA7C
:10301000020646EA06464FEA164646EA0106BCBFE5
:1030200046EA0646360C4FF000034FF000024FF020
:10303000000194E72DE9804C70B49A46934691E8DC
:10304000380007C831EA400C48BF34EA430C03D5C6
:10305000FFF7E6FDFFF780FFF0BCBDE8008C2DE92F
:10306000804C70B49A46934691E8380007C810F037
:10307000804F08BF13F0804F03D100F005F8FFF731
:103080006BFFF0BCBDE8008C20F07F4723F07F4C45
:1030900080EA030000F0004007EB0C03A3F57C532B
:1030A000A3F1FE0392F0000F00F0B38095F0000F43
:1030B00000F077802DE901494FEA114021EA0048EC
:1030C0004FEA144624EA064700FB06FC08FB06F616
:1030D00007FB08F818EB06484CEB164C00FB07F70B
:1030E00018EB07484CEB17404FEA124B22EA0B4E05
:1030F0004FEA154625EA06470BFB06FC0EFB06F6D3
:1031000007FB0EFE1EEB064E4CEB164C0BFB07F7B7
:103110001EEB074E4CEB174B18EB0B0840F1000071
:1031200018EB0E0B58EB000840F100008F1A4FF01F
:1031300000014FF000063CBFC943661B14BFB5EB4E
:10314000040C00213CBFC943F61B4FEA174427EA91
:1031500004454FEA1C472CEA074C04FB076205FBB9
:1031600007F70CFB05F616EB074642EB174204FB8C
:103170000CFC16EB0C4642EB1C421BEB060658EB14
:10318000020241414EEA8E0E46EA9E0601D5BDE896
:103190000189B619524141EB0101A3F10103BDE8D8
:1031A00001894FEA144524EA05464FEA114721EA0E
:1031B000074C05FB07F406FB07F70CFB06F111EBC8
:1031C000074144EB174405FB0CFC11EB0C4144EBAD
:1031D0001C444FEA124722EA074C05FB07F206FBA4
:1031E00007F70CFB06F616EB074642EB174205FB0A
:1031F0000CFC16EB0C4642EB1C456A1854F100011E
:1032000048BF7047B619524141EB0101A3F10103D8
:10321000704795F0000F37D04FEA114221EA02467D
:103220004FEA144724EA074C02FB07F106FB07F7B5
:103230000CFB06F414EB074441EB174102FB0CFCBA
:1032400014EB0C4441EB1C414FEA154725EA074CAF
:1032500002FB07F506FB07F70CFB06F616EB074625
:1032600045EB174502FB0CFC16EB0C4645EB1C42EC
:10327000121951F1000148BF7047B619524141EB94
:103280000101A3F1010370474FEA144524EA054602
:103290004FEA114721EA074C05FB07F106FB07F748
:1032A0000CFB06F212EB074241EB174105FB0CFC4D
:1032B00012EB0C4251EB1C414FF0000648BF704727
:1032C000921841EB0101A3F10103704703B4019887
:1032D0004100009850EAC12018BF04204A0D18BFD1
:1032E00040F0010040F2FF72B2EB515F08BF40F0C6
:1032F0000200012808BF052002B0704730380A28B4
:1033000001D20120704700207047000010B500294D
:103310000AD00878002807D005487844FEF7ECF872
:10332000002801D0002010BD0248784410BD0000E4
:103330000E0300000603000010B500290AD008782B
:10334000002807D005487844FEF7D6F8002801D0B9
:10335000002010BD0248784410BD0000FE020000AD
:10336000F6020000F1EE100A4FF6FF71C0F2C03114
:1033700020EA010040F04070E1EE100A7047FDF7CE
:10338000C5BCFDF7F9BD0000000000000000000012
:10339000303132333435363738394142434445468B
:1033A0004030580030313233343536373839616285
:1033B0006364656640307800040000080000000087
:1033C0000000000200010000103031323334353685
:1033D0003738396162636465667870003031323342
:1033E0003435363738394142434445465850000059
:1033F00002400000000000A00000000005400000A6
:10340000000000C8000000000C4000000000409CCC
:1034100000000000194000000020BCBE00000000B9
:1034200034400000BFC91B8E00000004B5400000FE
:10343000504BCFD06607E2CF010000006C41000086
:103440003E8251AADFEEA73401000000D9420000FD
:10345000DCB5A0E23A301F97FFFFFFFFB445000044
:10346000FD25A0C8E9A3C14FFFFFFFFFFF3F0000FC
:103470000000008000000000FF3F0000000000800E
:103480000000000000000000000000000102030432
:10349000060708090000000001020304424C5F44D3
:1034A000454255475F4D53473A20436865636B7308
:1034B000756D207672696669636174696F6E2066E6
:1034C00061696C210A00424C5F44454255475F4D9B
:1034D00053473A20436865636B73756D2076657258
:1034E000696669636174696F6E2073756363657380
:1034F00073210A00424C5F44454255475F4D534794
:103500003A20426F6F746C6F616465725F4A756DCB
:10351000705F546F5F557365725F41707028290A40
:1035200000424C5F44454255475F4D53473A206245
:103530006F6F746C6F616465725F676574766572D6
:103540005F636D645F68616E646C657228290A0050
:10355000424C5F44454255475F4D53473A204D53D7
:10356000503A202523780A00424C5F444542554793
:103570005F4D53473A2055736572206170706C69D6
:10358000636174696F6E2052657365745F48616E24
:10359000646C6572282920616464726573733A20D3
:1035A0002523780A00424C5F44454255475F4D53FE
:1035B000473A20424C5F5645523A20256420252345
:1035C000780A00424C5F44454255475F4D53473AA5
:1035D0003A20427574746F6E206E6F74207072653D
:1035E00073736564202E2E2E20657865637574696B
:1035F0006E672075736572206170706C69636174A9
:10360000696F6E0A0D0000005837000800000020A6
:1036100010000000C40100086837000810000020F6
:10362000C0070000E00100081C000000430000008B
:10363000F8FFFFFF0C0000000E0000000F0000006C
:103640002E0000001001000043000000F8FFFFFF03
:1036500000404040404040404040414141414140A5
:10366000404040404040404040404040404040405A
:1036700040050202020202020202020202020202E9
:1036800002202020202020202020200202020202EE
:103690000202909090909090101010101010101046
:1036A0001010101010101010101010100202020252
:1036B0000202888888888888080808080808080896
:1036C0000808080808080808080808080202020292
:1036D00040000000000000000000000000000000AA
:1036E00000000000000000000000000000000000DA
:1036F00000000000000000000000000000000000CA
:1037000000000000000000000000000000000000B9
:1037100000000000000000000000000000000000A9
:103720000000000000000000000000000000000099
:103730000000000000000000000000000000000089
:103740000000000000000000000000000000000079
:103750000000000000000000010000001000000058
:083760000024F4000000000049
:040000050800018965
:00000001FF
