:020000040800F2
:10000000D8070020D502000825340008B9300008C0
:10001000213400084D1B00081D38000800000000B6
:10002000000000000000000000000000DD340008B7
:10003000511B000800000000953400083535000809
:10004000EF020008EF020008EF020008EF020008CC
:10005000EF020008EF020008EF020008EF020008BC
:10006000EF020008EF020008EF020008EF020008AC
:10007000EF020008EF020008EF020008EF0200089C
:10008000EF020008EF020008EF020008EF0200088C
:10009000EF020008EF020008EF020008EF0200087C
:1000A000EF020008EF020008EF020008EF0200086C
:1000B000EF020008EF020008EF020008EF0200085C
:1000C000EF020008EF020008EF020008EF0200084C
:1000D000EF020008EF020008EF020008EF0200083C
:1000E000EF020008EF020008EF020008EF0200082C
:1000F000EF020008EF020008EF020008EF0200081C
:10010000EF020008EF020008EF020008EF0200080B
:10011000EF020008EF020008EF020008EF020008FB
:10012000EF020008EF020008EF020008EF020008EB
:10013000EF020008EF020008EF020008EF020008DB
:10014000EF020008EF020008EF020008EF020008CB
:10015000EF020008EF020008EF020008EF020008BB
:10016000EF020008EF020008EF020008EF020008AB
:10017000EF020008EF020008EF0200080000000094
:10018000EF020008EF02000800F002F800F092F819
:100190000AA090E8000C82448344AAF10107DA45E2
:1001A00001D100F087F8AFF2090EBAE80F0013F0A2
:1001B000010F18BFFB1A43F001031847B0440000B9
:1001C000D0440000103A24BF78C878C1FAD852074A
:1001D00024BF30C830C144BF04680C6070470000C1
:1001E0000023002400250026103A28BF78C1FBD840
:1001F000520728BF30C148BF0B6070476E2900F01E
:100200001D82702900F05F83662903F0F28765295B
:1002100003F0EF87672903F0EC87612903F0EB8790
:1002200003681B0A28BF41F08001692900F0CA81D8
:10023000642900F0C781752900F0C4816F2900F09E
:10024000ED82782900F02B83E92900F08782E429E8
:1002500000F08482F52900F08182EF2900F0EA8223
:10026000F82900F02A830368DB0928BF41F08001E8
:10027000632901F02B80732901F03080E32901F01C
:100280003B80F32901F04080002070471FB503F048
:10029000A3FF01F08FF804000020002103F086FF87
:1002A000401C60600020002103F06AFFE0601FBD79
:1002B00010B510BD01F050F81146FFF7E7FF03F04D
:1002C00049FB01F02DF903B4FFF7F2FF03BC01F085
:1002D00075F900000948804709480047FEE7FEE736
:1002E000FEE7FEE7FEE7FEE7FEE7FEE7FEE7FEE7E6
:1002F00004480549054A064B70470000F9350008D7
:1003000089010008D8010020D8070020D803002068
:10031000D803002053EA020C00F069802DE9F04B6D
:100320004FF00006002B1FBFB3FA83F503FA05F464
:1003300024FA05F65E4012BF1643B2FA82F502FABD
:1003400005F4C5F120051EBF22FA05FC44EA0C04A1
:10035000203556EA044C4FEA144418BF641C4FF091
:1003600000084FF00009904271EB030C39D30029CB
:1003700019BFB1FA81F701FA07F6B0FA80F700FA6F
:1003800007F6C7F120071EBF20FA07FC46EA0C0655
:100390002037B6FBF4FCA7EB0507103F07F01F0B57
:1003A000CBF120062CFA06F60CFA0BFB44BFB34641
:1003B0000026202FA4BF5E464FF0000B5BEA060C20
:1003C00008BF4FF0010B19EB0B0948EB0608ABFB1C
:1003D000027C06FB02CC0BFB03CCC01B71EB0C01B7
:1003E000C1E70B46024641464846BDE8F08B13B5CF
:1003F000084318BF4FF0FF300146AFF30080BDE85F
:100400001C4070471CB50C46064B7B446946009067
:10041000204600F02CF904460020694600F03AF925
:1004200020461CBD8702000010B5431C02E010F8F6
:10043000011B71B18107FAD14FF0013202C88C1A49
:100440008C4314EAC211F9D0C01A0A0603D0C01EA8
:1004500010BDC01A10BD0A0401D0801E10BD0902D3
:10046000FCD0401E10BD4FF000020429C0F01280E5
:1004700010F0030C00F01B80CCF1040CBCF1020F57
:1004800018BF00F8012BA8BF20F8022BA1EB0C012C
:1004900000F00DB85FEAC17C24BF00F8012B00F822
:1004A000012B48BF00F8012B70474FF0000200B548
:1004B000134694469646203922BFA0E80C50A0E887
:1004C0000C50B1F12001BFF4F7AF090728BFA0E835
:1004D0000C5048BF0CC05DF804EB890028BF40F801
:1004E000042B08BF704748BF20F8022B11F0804F43
:1004F00018BF00F8012B704770477047704770B500
:10050000044685690068C10601D5302600E0202632
:10051000C00707D070BDD4E9012130469047206A5A
:10052000401C20626D1EF6D570BD70B5044685690D
:100530000078C00707D170BDD4E901212020904781
:10054000206A401C20626D1EF6D570BD09684A0500
:1005500001D540B27047C905FCD500B270470968A3
:100560004A0501D5C0B27047C905FCD580B27047B5
:1005700070B50C460546012A05D02878800600D5BE
:10058000EA69002302E0012305E05B1C934202D2EA
:10059000E05C0028F9D1A869E618C01AA861286AA9
:1005A000184428622846FFF7AAFF04E0D5E9012194
:1005B00014F8010B9047B442F8D32846FFF7B5FF73
:1005C00070BD00002DE9F041064600241068752931
:1005D000314616A510D0FFF7B9FF002802DA4042D5
:1005E00013A507E031688A0701D512A502E0490783
:1005F00004D511A5012401E0FFF7B1FF00210A2273
:1006000006F1240709E0B0FBF2FCB0FBF2F302FBB9
:100610001C00303078541846491C0028F3D123467A
:100620002A463046BDE8F04100F061BA0000000003
:100630002D0000002B00000020000000116802685F
:10064000006A530501D508700AE0D30501D508807A
:1006500006E0130603D5C217C1E9000200E00860F6
:100660000120704701694A1C02610878704700B593
:100670008FB0CDE901310021059105497944CDE9DB
:1006800003101146684600F029F90FB000BD0000C4
:10069000E5FFFFFF0A6802F8010B0A6070470000DF
:1006A0002DE9FF5F15468A460446DFF8AC80F84422
:1006B0000027D8E900103E46CDE9001010E03AF8D6
:1006C00016106A4602A800F023FE411C07D02178CC
:1006D000890603D5E269391891420DD80744761C82
:1006E0002078800602D5E069B84205DDAE42E6DB3F
:1006F0003AF816000028E2D1A069C01BA06120468C
:10070000FFF7FDFED8E90010CDE90010002017E04A
:100710003AF818106A4602A800F0FAFDB0F1FF3F5F
:1007200081460BD000250DF1080B05E0D4E901212D
:100730001BF8050090476D1C4D45F7D308F10100EB
:10074000B0428046E4DB206A384420622046FFF74E
:10075000ECFEBDE8FF9F00004A3B00002DE9F041A0
:100760008046D21D22F007020025D2E90002F529B9
:1007700015A614D0011E72F1000106DA0023D0EB99
:10078000030063EB020211A608E0D8F800108B0703
:1007900001D50FA602E0490701D50EA60125114695
:1007A000002408F1240704E000F05CF930323A55E7
:1007B000641C50EA0102F7D12B46324621464046DE
:1007C000BDE8F04100F093B9000000002D000000EA
:1007D0002B0000002000000030B4002100F12404B0
:1007E00008E002F00705D208303542EA4372DB0820
:1007F0006554491C52EA0305F3D10468002310A292
:10080000250708D504F020040C4304D0C469012353
:100810000CA2641EC46130BC00F069B910B5044676
:1008200021461068FFF79BFE02462046BDE81040B7
:100830000023D1E7D21D22F00701D1E90023CBE745
:100840000000000030000000F0B40D4601880905EA
:1008500002D5214C7C4402E01F4C7C440E34002124
:1008600000F1240608E002F00F071209E75D42EAF2
:1008700003721B097754491C52EA0307F3D102782B
:100880000023120704D5702D06D009B102231134BC
:100890002246F0BC00F02BB901231034F8E770B504
:1008A00004460D4621461068FFF759FE02462946C8
:1008B0002046BDE870400023C6E7D21D22F00703A2
:1008C000D3E90023C0E70368126843F02003036004
:1008D0000823C3610023B7E7AC3900002DE9F05FBE
:1008E000894604464FF0000ADFF874B1FB44C0F8B3
:1008F00020A02046E1688847002874D0252806D02B
:10090000D4E901219047206A401C2062F1E70026CB
:100910005F462046E16888472028054607DB312DE1
:1009200005D2781910F8200C08B10643F1E7B0079A
:1009300001D526F00406C4F81CA00027C4F818A0AE
:100940002A2D09D0284603F013FC38B304EB87089E
:10095000303DC8F8185019E059F8041B204604EB44
:1009600087029161E1688847012F054618D1E06947
:10097000002820DA26F020061DE0D8F8180000EB49
:10098000800005EB40003038C8F818002046E168C8
:100990008847054603F0ECFB0028EED1012F0AD072
:1009A0002E2D08D12046E16888477F1C0546022F7E
:1009B00046F02006C4DBA069002803DA404246F076
:1009C0000106A061F00701D026F010066C2D0BD0B7
:1009D000682D09D04C2D39D06A2D35D0742D35D0E5
:1009E0007A2D33D016E038E0E1682F46204688475C
:1009F000B842054609D16C2F26D04FF48060E168DB
:100A0000064320468847054604E06C2F1AD04FF471
:100A1000807006430DB3A5F14100192802D8203596
:100A200046F400664A462946204626604E46FFF7B1
:100A3000E5FB80B101280BD0F61D26F0070000F180
:100A4000080956E74020E4E78020D8E70020D6E7F1
:100A500006F104094DE7284652E7206ABDE8F09FF9
:100A60003C39000030B5B0F10A0271F100034FEAE1
:100A7000900E4EEA817EB0EB0E0061EB91014FEAE1
:100A8000101E4EEA017E10EB0E0041EB11114FEAF1
:100A9000102E4EEA016E10EB0E0041EB11214FEAD1
:100AA000104E4EEA014E10EB0E0041EB1141401882
:100AB00041F100014FEAD00040EA41704FEAD10114
:100AC0004FEA810444EA907410EB800544EB010482
:100AD0006D1944EB0404521BA3414FF0000348BFBF
:100AE0000A3200D530BD401C41F1000130BD2DE976
:100AF000F0470D4699469246044600F124080168E5
:100B0000880604D5E06921F01001216000E0012091
:100B1000A84201DD471B00E00027A1697A1902EB1A
:100B20000900081AA0612078C00602D42046FFF709
:100B3000E6FC002608E0D4E901211AF806009047F7
:100B4000206A401C761C20624E45F4DB2078C006EB
:100B50000AD52046FFF7D3FC06E0D4E90121302076
:100B60009047206A401C2062381EA7F10107F4DC80
:100B700007E0D4E9012118F805009047206A401CDD
:100B80002062281EA5F10105F3DC2046FFF7CDFC0D
:100B90002078000602D50220BDE8F0870120FBE79F
:100BA0002DE9FF4F0C461E464FF0FF378BB0D2E9C0
:100BB0000001DDF860800A908A46C1F30A5505B944
:100BC0003D46002108464FF00000BAF1000F00F446
:100BD000400005DA00EB80004FF4400101EA5000CC
:100BE0004FEA9059B9F1010F00DDB9460A9850EA71
:100BF0004A000ED044F61050A5F2FF3545432F149D
:100C0000B8F1000F1ED07542291E1EDDC9F1000289
:100C10001CE0B8F1010F4FF0000001D0302103E0DB
:100C2000F24305E02154401CB042FBDB3046002279
:100C3000002121540B99C1F80880C1E900200FB0B0
:100C4000BDE8F08FBD1B6D1CDEE74A4600DA694245
:100C500006A800F0F3FB06AB93E8070003AB83E8BC
:100C6000070050460A9902F0A2FE8DE80700A0F5A1
:100C700000501F3800900398002D0ADD42F21F013A
:100C80004A460844002303A90390684603F00CF980
:100C900009E0A0F500504A461F38002303A903903D
:100CA000684603F016F98DE807000004000C03D035
:100CB0004FF0FF30410800E01046B8F1000F03D0BC
:100CC0000022009215461EE0751E05D4FFF7CAFEED
:100CD000303262556D1EF9D5B3460122084302D069
:100CE00000227F1C04E02078302801D100227F1EE2
:100CF000002A099784D01DE0112D07DAFFF7B2FE14
:100D0000303262556D1C50EA0102F5D1084302D021
:100D10000098C8B10EE00021681E05E0235C625C0B
:100D200063542254401E491C8142F7DBAB46A81B8A
:100D3000401E0990002004F80B000B98099AC0F897
:100D40000880C0E9002B7AE711264FF0000857E72A
:100D50002DE9F04F88460446D21D22F0070191B0DC
:100D6000D1E90001CDE90A0103F0EAF902460B9846
:100D7000C00F01D02D2007E02068810701D52B206E
:100D800002E0202101EAC000032A099001D0072ACD
:100D900005DB03464146204600F010FB0BE12078BE
:100DA000800601D5E06900E00620B8F1650F8146B4
:100DB00006D0B8F1660F18D0B8F1670F70D131E0E6
:100DC0000020B9F1110F009001DB112301E009F1BE
:100DD00001030AAA01A90CA8FFF7E2FEDDE90C70E5
:100DE000002609F10105834647E001204B460090AB
:100DF0004FF000470AAA01A90CA8FFF7D1FEDDE9D0
:100E00000DB00C995D46002610B909F101000D18CE
:100E1000B9EB050003D4C0F1FF3609F10105A5EBDC
:100E200009002BE0B9F1010F01DA4FF001090020B0
:100E3000B9F1110F0090484601DD112300E003468F
:100E40000AAA01A90CA8FFF7ABFEDDE90C704D461C
:100E500000268346207800070AD4AB4500DA5D46B9
:100E600001A8012D04DD411911F8011C302907D01A
:100E70004F4502DA17F1040F04DA012082460FE031
:100E80006D1EEEE7002F02DCED1B3E4403E0781CF4
:100E9000A84200DD7D1CB81B00F1010A4FF000479D
:100EA0002078000703D4AA4501DB4FF0FF3A002168
:100EB000B7F1004F0DF143088DF8431024D0022004
:100EC0002B23002F01DA7F422D230A21021EA0F1DD
:100ED000010000DC5FB197FBF1FC97FBF1F201FB35
:100EE0001C7C17460CF1300C08F801CDEEE7A8F198
:100EF000010003702188090501D5452100E0652125
:100F0000A0F1010800F8011C09980FA9A1EB08073E
:100F1000FF1D00B10120411901EBEA70A1693844BD
:100F2000081A401EA0612078C00602D42046FFF7B0
:100F3000E6FA099828B1D4E901219047206A401CBB
:100F400020622078C00622D52046FFF7D8FA1EE09E
:100F5000002E04DBB34502DD01A8805D00E03020F7
:100F6000D4E901219047206A401C2062761CAAF136
:100F700001005FEA000A0AD100F01CFAC0680168AB
:100F8000405CD4E901219047206A401C2062281E61
:100F9000A5F10105DCDC07E0D4E9012118F8010B1B
:100FA0009047206A401C2062381EA7F10107F3DC3D
:100FB0002046FFF7BAFA032011B041E62DE9F04FC1
:100FC00004460D46D21D22F0070089B0D0E90097F3
:100FD0004846394603F0B4F80246F80F01D02D23F5
:100FE00007E02068810701D52B2302E0202101EAD8
:100FF000C0038DF820300BB1012000E00020032A4F
:10100000824601D0072A04DB2946204600F0D6F9A3
:101010003FE12078800601D40D2500E0E569C7F3A3
:101020000A560D2D49DA00214FEA175B08464FF0AA
:101030000000002F00F4400007DA00EB80004FF4BE
:10104000400100EBD07001EA60008115012901DD4B
:101050004FF0FF3100224FEA850CBCF1180F06D388
:101060001346ACF118004FF08052C24003E04FF439
:10107000801323FA0CF30CF10C0CBCF1200F04D3F9
:10108000ACF1200C09FA0CF001E007FA0CF0002991
:101090004FF0004801DD18B90FE00ED140450CD3E8
:1010A00019EB02095F4121B9404502D19F4329EA6A
:1010B0000209BBEB175F00D0761C2088000502D523
:1010C0007B48784402E07A487844193808AA3023EB
:1010D00002F80A30037C0AF10101002E0AF1020A2B
:1010E00053546A4602DC4FF0300101E04FF0310109
:1010F0004FF001088DF8001002D0A6F2FF3603E091
:1011000059EA470100D06B4E002D02DC2178090717
:1011100004D54FF002082E218DF80110C44600219D
:101120000BE0C7F303433F01C35C491C6D1E02F88B
:101130000830052908F1010801DA002DF1DC002151
:101140000CE000EB1973491C1B786D1E082902F88E
:1011500008304FEA091908F1010801DA002DF0DC26
:1011600021688B0602D516E0A8F10108E04505DDEF
:1011700002EB080313F8013C302BF5D0B8F1000F57
:1011800009DD02EB080313F8013C2E2B03D10907FC
:1011900001D4A8F10108002D05DD3E2102F8081058
:1011A0006D1E08F10108407C002E02F8080008F1CD
:1011B000010804DA2D20764202F8080002E02B2014
:1011C00002F808000A214FF47A70864208F10108FB
:1011D0000BDB96FBF0F3303302F8083096FBF0F3AC
:1011E00008F1010800FB136601E0642E0CDB6420AB
:1011F00096FBF0F3303302F8083096FBF0F308F179
:10120000010800FB136601E00A2E06DB96FBF1F0F5
:10121000303002F8080008F1010896FBF1F001FBFC
:101220001060303002F80800A16908F1010808EBED
:10123000050202EB0A00081AA0612078C00602D459
:101240002046FFF75CF9216A08AE01EB0A00206234
:1012500004E0D4E9012116F8010B9047BAF1010A24
:10126000F7D22078C00602D52046FFF748F96E462F
:1012700009E016F8010B3E280FD0D4E90121904770
:10128000206A401C2062B8F10108F2D22046FFF724
:101290004CF909B00320BDE8F08F206A2844206291
:1012A00003E0D4E90121302090476D1EEBD3F8E72D
:1012B0008A31000002FCFFFF10B5436913B1AFF3A0
:1012C000008001E0FFF754F9012010BD127800F111
:1012D00024010A7000224A700122EDE711684FF0E4
:1012E000FF32E9E710B5436913B1AFF3008001E0C5
:1012F000FFF7D6F9012010BD128800F12401828485
:101300000022C2840122EDE711684FF0FF32E9E7C5
:101310002DE9F04116460C46054600F043F80368F7
:1013200093F80101012807D0FF2C12D8185D80B175
:1013300001202C70BDE8F081D3F807013246214628
:1013400003F20713C7182846BC46BDE8F041002346
:1013500060474FF0FF30EDE7754600F0EBF8AE4622
:1013600005006946534620F00700854618B020B5B1
:10137000FEF7BEFFBDE820404FF000064FF000072B
:101380004FF000084FF0000BAC46ACE8C009ACE8E9
:10139000C009ACE8C009ACE8C00921F007018D46DE
:1013A0007047000010B500F005F8001D10BD00BF2B
:1013B000FD2D000000487047380000202DE9F04165
:1013C0001F46044603260168072A01F4006004DB77
:1013D00008B116A505E016A503E008B115A500E0C3
:1013E00015A521F010002060A069C01EA0610FB1FA
:1013F000401EA0612046FFF782F84FB1D4E90121D9
:1014000038469047206A401C2062C01C206206E0DB
:10141000206AFAE7D4E9012115F8010B9047761EFE
:10142000F8D22046FFF781F8BDE8F0814E414E002A
:101430006E616E00494E4600696E66002DE9F04708
:10144000814616468AB0354878440DC88DE80D00AF
:1014500032487844801C03AC0DC884E80D0041F686
:101460009B300844372190FBF1F290FBF1F5A5F198
:10147000800501FB12041B3C02D56442012000E000
:101480000020DFF898A080460027FA44AAF1BE0A9F
:101490000EE0E0070AD03246684607EB4701012319
:1014A0000AEB810102F015FD8DE8070064107F1C36
:1014B000002CEED1194F7F44AE3F19E0E80715D05C
:1014C00007EB04100DF1180A90E80E008AE80E00F0
:1014D000C068F04201D1981908903246012306A94C
:1014E00003A802F0F6FC03AB83E807006D10641C50
:1014F000002DE3D14FF0010332466946B8F1000FE9
:1015000003A802D002F0D0FC01E002F0E2FCC9E93D
:101510000001C9F808200AB0BDE8F087942E000049
:1015200010B50446AFF300802046BDE81040FEF73A
:10153000CABE0000004870471800002000000000EC
:1015400030B44FF0013C50F8042B51F8043BCCFA76
:1015500052F4D51A20D1FCB950F8042B51F8043BB1
:10156000CCFA52F4D51A17D1B4B950F8042B51F86B
:10157000043BCCFA52F4D51A0ED16CB950F8042BB6
:1015800051F8043BCCFA52F4D51A05D1002CDAD02C
:1015900030BC4FF00000704729BAB1FA81F111F068
:1015A0001801D1F120008440F2D1CA40CB4012F0A2
:1015B000FF0213F0FF0330BCD01A70470149182016
:1015C000ABBEFEE7260002007047000081B000902D
:1015D00001B0704781B0009001B0704780B586B00F
:1015E000059044F29530C0F6000001F055FF0598D3
:1015F00000780130039005980399084450F8040CD2
:101600000290059803990439029A00F05FFAF8B93C
:10161000FFE744F23A30C0F6000001F03DFF0598C4
:1016200000780221019100F089F900F0AFFAADF8DD
:101630001200BDF8122044F29250C0F6000011468C
:1016400001F02AFF01990DF1120000F02DFA08E0D7
:1016500044F21030C0F6000001F01EFF00F088F9DF
:10166000FFE706B080BD000080B584B0039044F26F
:10167000F330C0F6000001F00FFF0398007801304E
:10168000029003980299084450F8040C01900398C2
:1016900002990439019A00F019FAA0B9FFE744F25F
:1016A0003A30C0F6000001F0F7FE039800780821F8
:1016B000009100F043F9009940F20400C2F20000EA
:1016C00000F0F2F908E044F21030C0F6000001F03A
:1016D000E3FE00F04DF9FFE704B080BD80B586B0B1
:1016E000059000208DF8130044F2C430C0F60000CD
:1016F00001F0D2FE05980078013003900598039917
:10170000084450F8040C0290059803990439029A91
:1017100000F0DCF9F8B9FFE744F23A30C0F6000017
:1017200001F0BAFE059800780121019100F006F958
:1017300000F01AFA8DF813009DF8132044F2D350EC
:10174000C0F60000114601F0A7FE01990DF113004B
:1017500000F0AAF908E044F21030C0F6000001F0F1
:101760009BFE00F005F9FFE706B080BD80B586B0AE
:10177000059044F22340C0F6000001F08DFE05986C
:1017800000780130039005980399084450F8040C40
:101790000290059803990439029A00F097F9F8B974
:1017A000FFE744F23A30C0F6000001F075FE0598FC
:1017B00000780121019100F0C1F800F0D3F98DF813
:1017C00013009DF8132044F2B550C0F600001146F6
:1017D00001F062FE01990DF1130000F065F908E0D7
:1017E00044F21030C0F6000001F056FE00F0C0F8E0
:1017F000FFE706B080BD000080B586B005900020F0
:1018000004908DF80F0001208DF80E0044F2524034
:10181000C0F6000001F040FE05980078013002900B
:1018200005980299084450F8040C01900598029913
:101830000439019A00F04AF9D8BBFFE744F23A3084
:10184000C0F6000001F028FE05980078012100F0A4
:1018500075F80598D0F802000490049944F22750D6
:10186000C0F6000001F018FE049801F0D9FF98B905
:10187000FFE70DF10F00012100F016F90498013087
:1018800004900498009044F2A740C0F6000001F0D4
:1018900003FE009880470BE044F28140C0F6000050
:1018A00001F0FAFD0DF10E00012100F0FDF8FFE757
:1018B00008E044F21030C0F6000001F0EDFD00F049
:1018C00057F8FFE706B080BD80B584B044F26830B9
:1018D000C0F6000001F0E0FD48F20000C0F6000094
:1018E00000680190019944F20F50C0F6000001F029
:1018F000D3FD01980390039880F3088848F2040010
:10190000C0F600000068009000980290029944F22E
:101910005550C0F6000001F0BFFD0298804704B0AA
:1019200080BD000081B0009001B0704781B0009090
:1019300001B0704781B0009001B0704780B582B0AF
:101940008DF807008DF80610A5208DF804009DF88D
:1019500006008DF8050040F24810C2F2000001A90F
:1019600002224FF0FF3301F0FFFA02B080BD000009
:1019700080B582B07F208DF8070040F24810C2F297
:1019800000000DF1070101224FF0FF3301F0ECFAE6
:1019900002B080BD80B586B000208DF81700FFE74B
:1019A00040F27800C2F200000390C821FEF75BFD10
:1019B000039940F24810C2F20000029001224FF059
:1019C000FF33019301F01EFA019B039902980A78F4
:1019D0008DF817209DF81720013101F013FA0398B4
:1019E00040785138014604910A2855D80499DFE817
:1019F00001F0060D141B222930373E454C0040F201
:101A00007800C2F20000FFF7B1FE4CE040F278002F
:101A1000C2F20000FFF728FE45E040F27800C2F273
:101A20000000FFF7DBFD3EE040F27800C2F200006C
:101A3000FFF754FE37E040F27800C2F20000FFF7F3
:101A4000DBFE30E040F27800C2F20000FFF7C2FD9A
:101A500029E040F27800C2F2000000F073F822E0C2
:101A600040F27800C2F20000FFF7B0FD1BE040F248
:101A70007800C2F20000FFF755FF14E040F2780052
:101A8000C2F20000FFF756FF0DE040F27800C2F20C
:101A90000000FFF74BFF06E044F2D440C0F6000020
:101AA00001F0FAFCFFE77BE780B582B0019000917E
:101AB0000199BDF8002040F24810C2F200004FF03A
:101AC000FF3301F051FA02B080BD000080B588B04C
:101AD000069005910492FF20039000200290FFE7FA
:101AE00002980599884212D2FFE706980299405C55
:101AF000019040F24010C2F2000001A9012200F062
:101B00004DF80390FFE7029801300290E8E740F2B9
:101B10004010C2F200000168886840F0010088604F
:101B200003980499884204D1FFE700208DF81F0034
:101B300003E001208DF81F00FFE79DF81F0008B0AB
:101B400080BD000081B0009001B07047FFE7FEE764
:101B50007047000081B0EFF3108072B60090FFE78D
:101B6000FEE700002020704782B000208DF80700BB
:101B70004CF20000C1F6FF70009000980068000A67
:101B80008DF807009DF8070002B0704742F2000090
:101B9000CEF2040000686FF31F30704785B00490E8
:101BA0000391029200200090049A02215171019049
:101BB000FFE70198029988420CD2FFE70398019948
:101BC00050F82100049909680860FFE70198013086
:101BD0000190EEE7049800680068009004990120E5
:101BE0004871009805B0704780B582B000900098A9
:101BF00020B9FFE701208DF8070011E00098407937
:101C000038B9FFE7009900200871009800F00CF83F
:101C1000FFE700990120487100208DF80700FFE7D9
:101C20009DF8070002B080BD82B001900198006865
:101C300043F20001C4F20201884212D1FFE7FFE73C
:101C40000020009043F63000C4F20200016841F425
:101C500080510160006800F4805000900098FFE718
:101C6000FFE702B0704700008EB00D900C9100208D
:101C70000A90099008900B90FFE70B980F2800F24C
:101C8000CC81FFE70B99012088400A900C980068EE
:101C90000A990840099009980A99884240F0B88149
:101CA000FFE70C98406800F00300012807D0FFE729
:101CB0000C98406800F0030002282FD1FFE70D9830
:101CC000806808900B984100032000FA01F1089801
:101CD000884308900C98C0680B99490000FA01F1FC
:101CE00008980843089008980D9988600D984068F6
:101CF00008900B99012000FA01F108988843089098
:101D00000C984068C0F300100B9900FA01F1089894
:101D10000843089008980D994860FFE70C984068C0
:101D200000F00300032818D0FFE70D98C068089062
:101D30000B984100032000FA01F1089888430890AD
:101D40000C9880680B99490000FA01F10898084343
:101D5000089008980D99C860FFE70C98406800F05B
:101D60000300022826D1FFE70D980B996FF00302BC
:101D700002EA51010844006A08900B9800F007003D
:101D800081000F2000FA01F10898884308900C9810
:101D900000690B9901F00701890000FA01F1089828
:101DA0000843089008980D990B9B02EA53021144CE
:101DB0000862FFE70D98006808900B984100032027
:101DC00000FA01F10898884308900C98406800F0E8
:101DD00003000B99490000FA01F1089808430890A4
:101DE00008980D9908600C9880798007002800F009
:101DF0000E81FFE7FFE70020079043F64400C4F29E
:101E00000200016841F480410160006800F48040F4
:101E100007900798FFE70B9820F0030043F60801AE
:101E2000C4F20101405808900B9800F003008100B3
:101E30000F2000FA01F10898884308900D980021BE
:101E4000C4F20201884203D1FFE7002006905EE061
:101E50000D9840F20041C4F20201884203D1FFE72D
:101E60000120059050E00D9840F60001C4F20201F7
:101E7000884203D1FFE70220049042E00D9840F62B
:101E80000041C4F20201884203D1FFE7032003901E
:101E900034E00D9841F20001C4F20201884203D1FE
:101EA000FFE70420029026E00D9841F20041C4F2C1
:101EB0000201884203D1FFE70520019018E00D9848
:101EC00041F60001C4F20201884203D1FFE7062077
:101ED00000900AE00D9941F60042C4F20202082087
:101EE000914208BF07200090FFE700980190FFE7AC
:101EF00001980290FFE702980390FFE7039804908F
:101F0000FFE704980590FFE705980690FFE706981D
:101F1000C0B20B9901F00301890000FA01F10898A1
:101F20000843089008980B9921F0030143F6080232
:101F3000C4F20102885043F60840C4F20100006870
:101F4000089009990898884308900C988079C006F1
:101F5000002805D5FFE70999089808430890FFE78E
:101F6000089843F60841C4F20101086043F60C40AA
:101F7000C4F2010000680890099908988843089005
:101F80000C9880798006002805D5FFE70999089804
:101F900008430890FFE7089843F60C41C4F201019A
:101FA000086043F60440C4F20100006808900999F3
:101FB0000898884308900C9880798007002805D5F8
:101FC000FFE70999089808430890FFE7089843F647
:101FD0000441C4F20101086043F60040C4F201006C
:101FE0000068089009990898884308900C988079AF
:101FF000C00728B1FFE70999089808430890FFE750
:10200000089843F60041C4F201010860FFE7FFE7CA
:10201000FFE70B9801300B902FE60EB070470000E1
:1020200082B00190ADF8021001980069BDF802106D
:10203000084204D0FFE701208DF8010003E00020F2
:102040008DF80100FFE79DF8010002B07047000025
:1020500082B00190ADF802108DF801209DF80100CA
:1020600028B1FFE7BDF802000199886105E0BDF8DD
:102070000200000401998861FFE702B07047000088
:1020800040F2D010C2F200000068704740F20C002D
:10209000C2F20000027840F2D011C2F200010868DA
:1020A000104408607047000080B582B043F60041DC
:1020B000C4F20201086840F400700860086840F447
:1020C00080600860086840F480700860032000F0B9
:1020D00085F80020019000F005F800F03BF8019829
:1020E00002B080BD80B582B0009040F20000C2F224
:1020F0000000006840F20C01C2F200010A784FF4BF
:102100007A71B1FBF2F1B0FBF1F000F09FFD20B16C
:10211000FFE701208DF8070018E000980F280DD880
:10212000FFE700994FF0FF30002200F03DF80098E3
:1021300040F21001C2F20001086003E001208DF8B6
:10214000070003E000208DF80700FFE79DF8070077
:1021500002B080BD80B582B0FFE70020019043F659
:102160004400C4F20200016841F48041016000684B
:1021700000F4804001900198FFE7FFE70020009005
:1021800043F64000C4F20200016841F08051016052
:10219000006800F0805000900098FFE7072000F0F2
:1021A0001DF802B080BD000080B586B08DF8170024
:1021B000049103920020029001F084FB02909DF9AB
:1021C0001700019002980499039A01F02DF9014635
:1021D000019801F07FFB06B080BD000080B582B0A1
:1021E0000190019801F098FB02B080BD80B584B0E9
:1021F00002900191029820B9FFE701208DF80F00AD
:1022000021E1019843F60041C4F20201096801F09E
:102210000701884212D9FFE7019943F60040C4F252
:1022200002000170006800F007000199884204D0A4
:10223000FFE701208DF80F0005E1FFE70298007825
:10224000800700282AD5FFE7029800784007002879
:1022500009D5FFE743F60801C4F20201086840F41B
:10226000E0500860FFE7029800780007002809D5D1
:10227000FFE743F60801C4F20201086840F4604039
:102280000860FFE743F60801C4F20201086820F085
:10229000F000029A926810430860FFE70298007805
:1022A000C00700286ED0FFE702984068012811D1CE
:1022B000FFE743F60000C4F20200006800F40031BA
:1022C0000020B0EB514F04D1FFE701208DF80F0043
:1022D000B9E02CE002984068022805D0FFE7029898
:1022E0004068032811D1FFE743F60000C4F2020062
:1022F000006800F000710020B0EB516F04D1FFE7DF
:1023000001208DF80F009EE010E043F60000C4F2BB
:102310000200006800F002010020B0EB510F04D170
:10232000FFE701208DF80F008DE0FFE7FFE743F6A0
:102330000801C4F20201086820F00300029A526802
:1023400010430860FFF79CFE0090FFE743F608008B
:10235000C4F20200006800F00C0002994968B0EB7A
:10236000810F0ED0FFE7FFF78BFE0099401A41F274
:102370008931884204D3FFE703208DF80F0062E023
:10238000E4E7FFE7019843F60041C4F2020109685F
:1023900001F00701884212D2FFE7019943F600409D
:1023A000C4F202000170006800F007000199884241
:1023B00004D0FFE701208DF80F0044E0FFE702980A
:1023C0000078400700280CD5FFE743F60801C4F267
:1023D0000201086820F4E050029AD26810430860B5
:1023E000FFE702980078000700280DD5FFE743F6C5
:1023F0000801C4F20201086820F46040029A1269E0
:1024000040EAC2000860FFE700F04CF843F608011C
:10241000C4F202010968C9B20A0944F2F821C0F6FF
:102420000001895CC84040F20001C2F2000108606E
:1024300040F21000C2F200000068FFF753FE0020D7
:102440008DF80F00FFE79DF80F0004B080BD00007D
:1024500040F20000C2F200000068704780B5FFF74C
:10246000F7FF43F60801C4F202010968C1F38222B2
:1024700044F20831C0F60001895CC84080BD00000C
:1024800080B5FFF7E5FF43F60801C4F202010968D1
:1024900089B24A0B44F20831C0F60001895CC84099
:1024A00080BD000080B586B00020059004900390A8
:1024B000029043F60800C4F20200006800F00C002D
:1024C0000146019140B1FFE7019804280AD0FFE7D7
:1024D000019808280CD04FE042F20040C0F2F4000E
:1024E00002904FE041F20020C0F27A00029049E0F1
:1024F00043F60400C4F20200016801F03F010591B7
:1025000000684002002813D5FFE743F60400C4F238
:1025100002000068C0F3881041F20021C0F27A0185
:10252000A0FB0101059A0023FDF7F4FE049012E0E0
:1025300043F60400C4F202000068C0F3881042F2BF
:102540000041C0F2F401A0FB0101059A0023FDF750
:10255000E1FE0490FFE743F60400C4F202000068C5
:1025600000F44031022000EBD1300390049803992D
:10257000B0FBF1F0029005E042F20040C0F2F4003E
:102580000290FFE7029806B080BD000080B586B0DB
:102590000490049820B9FFE701208DF8170050E35C
:1025A00004980078C007002800F0A580FFE743F6F4
:1025B0000800C4F20200006800F00C00042813D0E8
:1025C000FFE743F60800C4F20200006800F00C00C8
:1025D00008281ED1FFE743F60400C4F20200006899
:1025E0004002002815D5FFE743F60000C4F20200C0
:1025F000006800F400310020B0EB514F08D0FFE735
:102600000498406820B9FFE701208DF8170018E30F
:1026100070E0FFE704984068B0F5803F09D1FFE71C
:1026200043F60001C4F20201086840F480300860FB
:1026300020E004984068B0F5A02F0DD1FFE743F6E5
:102640000001C4F20201086840F4802008600868B4
:1026500040F4803008600CE043F60001C4F202014F
:10266000086820F480300860086820F48020086042
:10267000FFE7FFE7FFE704984068E8B1FFE7FFF7EF
:10268000FFFC0390FFE743F60000C4F2020000687D
:1026900000F400310020B0EB514F0CD1FFE7FFF701
:1026A000EFFC0399401A652804D3FFE703208DF857
:1026B0001700C6E2E7E71CE0FFF7E2FC0390FFE744
:1026C00043F60000C4F20200006800F4003100206C
:1026D000B0EB514F0CD0FFE7FFF7D2FC0399401A43
:1026E000652804D3FFE703208DF81700A9E2E7E788
:1026F000FFE7FFE7FFE7049800788007002840F134
:102700009680FFE743F60800C4F20200006810F06C
:102710000C0F13D0FFE743F60800C4F20200006874
:1027200000F00C0008282CD1FFE743F60400C4F2A7
:10273000020000684002002823D4FFE743F60000AF
:10274000C4F20200006800F002010020B0EB510F5B
:1027500009D0FFE70498C068012804D0FFE70120F2
:102760008DF817006DE243F60001C4F2020108681B
:1027700020F0F800049A126940EAC2000860FFE7FE
:1027800054E00498C06870B3FFE70021C4F2472109
:1027900001200860FFF774FC0390FFE743F6000098
:1027A000C4F20200006800F002010020B0EB510FFB
:1027B0000CD1FFE7FFF764FC0399401A032804D308
:1027C000FFE703208DF817003BE2E7E743F600013F
:1027D000C4F20201086820F0F800049A126940EA85
:1027E000C200086021E00021C4F2472100200860F7
:1027F000FFF746FC0390FFE743F60000C4F2020037
:10280000006800F002010020B0EB510F0CD0FFE790
:10281000FFF736FC0399401A032804D3FFE703208F
:102820008DF817000DE2E7E7FFE7FFE7FFE7049801
:102830000078000700284BD5FFE70498406918B3DB
:10284000FFE740F68061C4F2472101200860FFF7EE
:1028500017FC0390FFE743F67400C4F2020000681F
:1028600000F002010020B0EB510F0CD1FFE7FFF7A1
:1028700007FC0399401A032804D3FFE703208DF8CF
:102880001700DEE1E7E722E040F68061C4F247216D
:1028900000200860FFF7F4FB0390FFE743F67400A5
:1028A000C4F20200006800F002010020B0EB510FFA
:1028B0000CD0FFE7FFF7E4FB0399401A032804D389
:1028C000FFE703208DF81700BBE1E7E7FFE7FFE72D
:1028D000049800784007002840F1CE80FFE70020F0
:1028E0008DF8070043F64000C4F202000068C00003
:1028F000002815D4FFE7FFE70020009043F64000D2
:10290000C4F20200016841F080510160006800F0EB
:10291000805000900098FFE701208DF80700FFE746
:1029200047F20000C4F200000068C005002822D46D
:10293000FFE747F20001C4F20001086840F480702C
:102940000860FFF79DFB0390FFE747F20000C4F229
:1029500000000068C00500280CD4FFE7FFF790FBDB
:102960000399401A032804D3FFE703208DF81700CA
:1029700067E1EAE7FFE7FFE704988068012809D1EB
:10298000FFE743F67001C4F20201086840F001005D
:1029900008601FE00498806805280DD1FFE743F622
:1029A0007001C4F20201086840F004000860086881
:1029B00040F0010008600CE043F67001C4F202012F
:1029C000086820F001000860086820F00400086032
:1029D000FFE7FFE7FFE704988068F8B1FFE7FFF73C
:1029E0004FFB0390FFE743F67000C4F2020000685B
:1029F00000F002010020B0EB510F0ED1FFE7FFF70E
:102A00003FFB0399401A41F28931884204D3FFE722
:102A100003208DF8170014E1E5E71EE0FFF730FB17
:102A20000390FFE743F67000C4F20200006800F074
:102A300002010020B0EB510F0ED0FFE7FFF720FBA3
:102A40000399401A41F28931884204D3FFE70320F9
:102A50008DF81700F5E0E5E7FFE79DF8070001288E
:102A600009D1FFE743F64001C4F20201086820F0F3
:102A700080500860FFE7FFE704988069002800F0B5
:102A8000DC80FFE743F60800C4F20200006800F0B3
:102A90000C00082800F08580FFE704988069022870
:102AA0005CD1FFE76021C4F2472100200860FFF7F6
:102AB000E7FA0390FFE743F60000C4F20200006863
:102AC00000F000710020B0EB516F0CD0FFE7FFF772
:102AD000D7FA0399401A032804D3FFE703208DF89F
:102AE0001700AEE0E7E70499C869D1F820C04B6A47
:102AF0008A6A40EA0C0040EA8310D2034FF6FF7363
:102B00009A43A2F580321043C96A40EA016043F655
:102B10000401C4F2020108606021C4F247210120CF
:102B20000860FFF7ADFA0390FFE743F60000C4F238
:102B30000200006800F000710020B0EB516F0CD172
:102B4000FFE7FFF79DFA0399401A032804D3FFE734
:102B500003208DF8170074E0E7E721E06021C4F25C
:102B6000472100200860FFF78BFA0390FFE743F648
:102B70000000C4F20200006800F000710020B0EB19
:102B8000516F0CD0FFE7FFF77BFA0399401A032837
:102B900004D3FFE703208DF8170052E0E7E7FFE7D3
:102BA0004AE004988069012804D1FFE701208DF8EC
:102BB000170046E043F60400C4F2020000680290E9
:102BC00004988069012831D0FFE7029800F4800062
:102BD0000499C969884229D1FFE7029800F03F00B3
:102BE0000499096A884221D1FFE7029847F6C0712B
:102BF00008400499496AB0EB811F17D1FFE702989A
:102C000000F440300499896AC9034FF6FF7291437A
:102C1000A1F58031884209D1FFE7029800F0706089
:102C20000499C96AB0EB016F04D0FFE701208DF869
:102C3000170006E0FFE7FFE7FFE700208DF8170029
:102C4000FFE79DF8170006B080BD000080B582B098
:102C50000190019800F044FC02B080BD80B582B0C4
:102C60000090009820B9FFE701208DF807003EE0B2
:102C70000098806908B1FFE700E0FFE7009890F84E
:102C80003D0040B9FFE70099002081F83C00009822
:102C900000F032F8FFE70099242081F83D00009809
:102CA0000168C86820F40050C860009800F0AEFCCD
:102CB00000980168086920F4904008610098016854
:102CC000486920F02A00486100980168C86840F40B
:102CD0000050C860009900200864009A202182F802
:102CE0003D10009A82F83E108DF80700FFE79DF82E
:102CF000070002B080BD000080B58AB009900020B6
:102D0000089007900690059004900998006844F296
:102D10000041C4F20001884233D1FFE7FFE7002001
:102D2000039043F64000C4F20200016841F4003110
:102D30000160006800F4003003900398FFE7FFE7AC
:102D40000020029043F63000C4F20200016841F016
:102D500001010160006800F0010002900298FFE7A5
:102D60000C2004900220059000200690032007907C
:102D7000072008900020C4F2020004A9FEF774FFA7
:102D80003EE00998006844F60001C4F20001884260
:102D900035D1FFE7FFE70020019043F64000C4F281
:102DA0000200016841F480210160006800F4802085
:102DB00001900198FFE7FFE70020009043F6300004
:102DC000C4F20200016841F004010160006800F0F3
:102DD000040000900098FFE74FF440600490022048
:102DE000059000200690032007900720089040F6E9
:102DF0000000C4F2020004A9FEF736FFFFE7FFE778
:102E00000AB080BD80B58AB008900791ADF81A204D
:102E1000059300200290089890F83E00202840F08A
:102E20009B80FFE7079820B1FFE7BDF81A0020B9A3
:102E3000FFE701208DF8270092E0FFE7089890F85F
:102E40003C00012804D1FFE702208DF8270087E02D
:102E50000899012081F83C00FFE7FFE7089900206E
:102E60000864089A222182F83E1008990863FFF747
:102E700007F90290BDF81A0008998885BDF81A0074
:102E80000899C88508988068B0F5805F09D1FFE788
:102E90000898006928B9FFE700200490079803907C
:102EA00004E00798049000200390FFE7FFE70899EB
:102EB000002081F83C00FFE7FFE70898C08D00285C
:102EC00042D0FFE70898029B05996A4611602021CD
:102ED000002200F039FC20B1FFE703208DF8270025
:102EE0003EE0049858B9FFE70898006840686FF31F
:102EF0005F20039908800398023003901FE0089830
:102F00008068B0F5805F08D0FFE70898806850B906
:102F1000FFE70898006930B9FFE708980068406843
:102F20000499087007E008980068406800F07F0086
:102F300004990870FFE7049801300490FFE70899AE
:102F4000C88D0138C885B8E70899202081F83E006F
:102F500000208DF8270003E002208DF82700FFE70E
:102F60009DF827000AB080BD80B58AB0089007910F
:102F7000ADF81A20059300200290089890F83D00C3
:102F8000202840F09080FFE7079820B1FFE7BDF8C8
:102F90001A0020B9FFE701208DF8270087E0FFE73E
:102FA000089890F83C00012804D1FFE702208DF832
:102FB00027007CE00899012081F83C00FFE7FFE74B
:102FC0000899002008640899212081F83D00FFF746
:102FD00057F80290BDF81A0008998884BDF81A00C5
:102FE0000899C88408988068B0F5805F09D1FFE728
:102FF0000898006928B9FFE700200490079803901B
:1030000004E00798049000200390FFE7FFE7089989
:10301000002081F83C00FFE7FFE70898C08C58B318
:10302000FFE70898029B05996A46116080210022FB
:1030300000F08AFB20B1FFE703208DF8270036E07F
:10304000049858B9FFE7039800886FF35F20089948
:103050000968486003980230039008E004980078FB
:10306000089909684860049801300490FFE70899BE
:10307000C88C0138C884D0E70898029B05996A4635
:1030800011604021002200F05FFB20B1FFE7032028
:103090008DF827000BE00899202081F83D000020E2
:1030A0008DF8270003E002208DF82700FFE79DF848
:1030B00027000AB080BD0000FFE7FEE780B540F2C0
:1030C0004010C2F2000043F20001C4F202010160AC
:1030D000FEF78AFD18B1FFE7FEF73CFDFFE780BD74
:1030E00080B59AB0002019901890179016901590FE
:1030F000FFE70020149043F63000C4F2020001689C
:1031000041F010010160006800F010001490149864
:10311000FFE7FFE70020139043F63000C4F20200FF
:10312000016841F004010160006800F004001390A0
:103130001398FFE7FFE70020129043F63000C4F237
:103140000200016841F080010160006800F0800029
:1031500012901298FFE7FFE70020119043F630002D
:10316000C4F20200016841F001010160006800F052
:10317000010011901198FFE7FFE70020109043F63F
:103180003000C4F20200016841F0020101600068F1
:1031900000F0020010901098FFE7FFE700200F906A
:1031A00043F63000C4F20200016841F008010160FA
:1031B000006800F008000F900F98FFE741F2000050
:1031C000C4F202000D900821019100220C92FEF73A
:1031D0003FFF40F60000C4F2020006900122049274
:1031E0001146FEF735FF0C9A40F60040C4F202008B
:1031F00008904FF210010391FEF72AFF019B049AF9
:103200000C990D98159316921791189115A90E9176
:10321000FEF72AFD049B06980C9A0E9915931693B7
:1032200017921892FEF720FD019B06980C9A0E99B2
:10323000159302230B93169317921892052202926C
:103240001992FEF711FD049A0C980E9915924FF4FD
:103250008812169217900020C4F202000790FEF721
:1032600003FD07980B9B0C9A0E994FF0100CCDF8AC
:1032700054C0169317921892062205921992FEF7DF
:10328000F3FC029A0798DDF82CC00C9B0E994FF0C6
:10329000E00ECDF854E0CDF858C01793189319926A
:1032A000FEF7E2FC0C980E990422099215921690F2
:1032B000179040F20040C4F202000A90FEF7D4FCDE
:1032C000029A0A98DDF82CC00C9B0E994FF4806E80
:1032D000CDF854E0CDF858C0179318931992FEF723
:1032E000C3FCDDF80CC0049B08980C9A0E99CDF82D
:1032F00054C0169317921892FEF7B6FC059A0698DA
:10330000DDF82CC00C9B0E994FF4845ECDF854E090
:10331000CDF858C0179318931992FEF7A5FC07989B
:103320000C9A0E994FF40073159316921792FEF7AC
:103330009BFC07980B9B0C9A0E994FF4E05CCDF820
:1033400054C01693179218920A221992FEF78CFC19
:1033500008980C9A0E992023159316921792FEF74F
:1033600083FC099A0A980C9B0E994FF4107CCDF8B7
:1033700054C04FF0120CCDF858C0179318931992FF
:10338000FEF772FC0B9B0C9A0D980E9915934FF457
:10339000901316931792FEF767FC1AB080BD0000D9
:1033A00080B582B040F24810C2F20000019044F2B1
:1033B0000041C4F2000101604FF4E131416000219D
:1033C0008160C16001610C2242618161C161FFF7CE
:1033D00045FC18B1FFE7FEF7BDFBFFE702B080BD7B
:1033E00080B582B040F28C10C2F20000019044F629
:1033F0000001C4F2000101604FF4E131416000219D
:103400008160C16001610C2242618161C161FFF78D
:1034100025FC18B1FFE7FEF79DFBFFE702B080BD7A
:10342000FFE7FEE7FFE7FEE788B007900691059209
:10343000079800F0070004900498C0F107000528E1
:1034400003D3FFE70420019004E00498C0F10700D3
:103450000190FFE70198039004980430062803D8F0
:10346000FFE70020009003E0049803380090FFE796
:103470000098029006980399012202FA01F101399D
:103480000840029B984005999A40013A1140084330
:1034900008B070477047000083B080B597B01B93A9
:1034A0001A921991169019A801901699019A02A8DA
:1034B0000090FCF7A7FF0098FCF7B6FF009982B2D6
:1034C00040F28C10C2F200004FF0FF33FFF74CFDCA
:1034D00017B0BDE8804003B070470000704700009F
:1034E00080B582B0009000980138B0F1807F03D39E
:1034F000FFE70120019019E0009801384EF2140115
:10350000CEF2000108604FF0FF300F2100F0E2F929
:103510004EF21801CEF20001002008604EF21002B7
:10352000CEF20002072111600190FFE7019802B07E
:1035300080BD000080B5FEF7A9FD80BD80B594B0C8
:1035400008A83021FCF7B1FF0020079006900590F5
:1035500004900390FFE70020029043F64000C4F27D
:103560000200016841F080510160006800F0805065
:1035700002900298FFE7FFE70020019047F2000069
:10358000C4F20000016841F480410160006800F469
:10359000804001900198FFE70220089001210B91E3
:1035A00010210C910E9000200F90082010903220D6
:1035B0001190042012900720139008A8FEF7E6FF50
:1035C00018B1FFE7FEF7C6FAFFE70F2003900220CD
:1035D0000490002105914FF4A05006904FF48050C4
:1035E000079003A8FEF702FE18B1FFE7FEF7B2FA54
:1035F000FFE714B080BD00004EF68851CEF2000106
:10360000086840F4700008607047000080B586B01C
:10361000059005980068006920F44050059A1168EB
:10362000D26810430861059988680B694A69C969BD
:10363000184310430843049005980068C06849F295
:103640000C6188430499084305990968C860059886
:103650000068406920F44070059A1168926910432F
:1036600048610598006841F20001C4F201018842F6
:1036700009D0FFE70598006841F20041C4F201015A
:10368000884204D1FFE7FEF7FBFE039003E0FEF75C
:10369000E5FE0390FFE70598C069B0F5004F29D11A
:1036A000FFE703981921A0FB0101059A1368029313
:1036B00053685A00DB0FFCF72DFE0299864648F24C
:1036C0001F53C5F2EB13AEFB0320420910014FF06C
:1036D000640C02FB1CEC322202EBCC02A2FB033294
:1036E000F82303EA521300EB4300C2F342121044E2
:1036F000886026E003981921A0FB0101059A136850
:10370000019353689A009B0FFCF704FE01998446CD
:1037100048F21F52C5F2EB12ACFB023043096420A1
:1037200003FB10CC322000EB0C10A0FB0202F020B7
:1037300000EA521000EB0310C2F3431210448860F9
:10374000FFE706B080BD000080B588B0DDF828C076
:10375000069005918DF813200393FFE70698006803
:10376000006805990840401AB0FA80F040099DF8B9
:103770001310884249D1FFE70A980130002843D04E
:10378000FFE70A9840B1FFE7FEF77AFC0399401A79
:103790000A99884237D9FFE7FFE7FFE706980068F4
:1037A00050E8030F20F4D0700290FFE702990698CA
:1037B000026842E803100028F0D1FFE7FFE7FFE7C7
:1037C000FFE70698006850E8050F20F0010001901F
:1037D000FFE701990698026842E805100028F0D139
:1037E000FFE7FFE70699202081F83D00069981F860
:1037F0003E00FFE70699002081F83C00FFE7032028
:103800008DF81F0005E0FFE7A8E700208DF81F00F6
:10381000FFE79DF81F0008B080BD0000FFE7FEE74E
:1038200082B000900098B0F1005F0CD3FFE70098E1
:103830004CF20001C2F20101884204D8FFE70020E7
:103840008DF8070039E000984CF20001C2F2010146
:1038500088420CD3FFE7009848F20001C2F203014E
:10386000884204D8FFE700208DF8070025E0009883
:10387000B0F1006F09D3FFE70098000D802804D84D
:10388000FFE700208DF8070017E0009844F20001E0
:10389000C4F2020188420CD3FFE7009845F2000110
:1038A000C4F20201884204D8FFE700208DF8070027
:1038B00003E001208DF80700FFE79DF8070002B044
:1038C000704700004EF60C50CEF200000068C0F3C6
:1038D0000220704782B08DF8070000919DF9070023
:1038E00000280AD4FFE7009800019DF907104EF266
:1038F0000042CEF2000288540BE0009800019DF8CF
:10390000071001F00F014EF61452CEF20002885457
:10391000FFE702B07047000083B00290029800F009
:10392000070000904EF60C51CEF20001086801909D
:1039300001984FF6FF02104001900198009A40EA6A
:1039400002200022C0F2FA52104301900198086050
:1039500003B0704780B582B000200190FEF7A4FB51
:10396000FFF7ECFDFFF7BCFBFFF7A8FBFFF718FD27
:10397000FFF736FD0020C4F202000121FEF750FBE4
:10398000012809D1FFE744F2F450C0F60000FFF728
:1039900083FDFDF7FFFF08E044F22860C0F6000059
:1039A000FFF77AFDFDF790FFFFE7FFE7FEE75FEA2D
:1039B000400C08BF91F0000F4FEA8C234FEAC12260
:1039C00043EA51514FEA1C5018BF00F5F0404FEA4E
:1039D000300018BF41F000415FEA6C5C00F02980C4
:1039E000BCF1FF3F08BF40F080407047130C06BF9A
:1039F00012044FF0100C4FF0000C130E04BF120213
:103A00000CF1080C130F04BF12010CF1040C930FFE
:103A100004BF92000CF1020CD30F04BF52000CF152
:103A2000010C11464FF00002A0F11F00A0EB0C00AA
:103A3000704711F0004F08BF704731F000413FF46C
:103A4000D5AF0B0C06BF09044FF0100C4FF0000C63
:103A50000B0E04BF09020CF1080C0B0F04BF090187
:103A60000CF1040C8B0F04BF89000CF1020CCB0F7E
:103A700004BF49000CF1010CCCF1200322FA03F33E
:103A800041EA030102FA0CF2A0EB0C0000F1010084
:103A90007047000023F07F4720F07F4C80EA03004E
:103AA00000F00040ACEB070303F57C5303F1FF0388
:103AB0002DE9804909B44FEA144324EA03484FEA48
:103AC000154B25EA0B4E0FF2042606EB13273E7822
:103AD00003FB0667C7F5000707FB06F64FEAD64665
:103AE00006F102064FEA543707FB066CCCF1005C86
:103AF0004FEA1C472CEA074C0CFB06F507FB06F4C3
:103B000004EB15464FEA961649085FEA320234BFC5
:103B100000204FF000404FEAD13706FB07FC4FEA88
:103B20001C4C0CFB0BF7D21B03FB0CF761EB0701E2
:103B30000CFB0EF7B0EB074072EB17420CFB08F7DB
:103B400034BFA2EB0742B2EB074261EB17414FEAE9
:103B50000C444FEA910706FB07FC4FEA1C4C0CFB98
:103B60000BF7B0EBC74072EB573203FB0CF734BFD7
:103B7000A2EBC742B2EBC74261EB57310CFB0EF729
:103B8000B0EBC70072EB57720CFB08F734BFA2EB27
:103B9000C702B2EBC70261EB57714FEA816141EA9C
:103BA00092114FEA826242EA90124FEA806004EB7F
:103BB000CC04039F4FEAD13706FB07FC4FEA1C4CAD
:103BC0000CFB0BF7D21B03FB0CF761EB07010CFBA3
:103BD0000EF7B0EB074072EB17420CFB08F734BF4F
:103BE000A2EB0742B2EB074261EB17414FEA8C555B
:103BF00004EB9C244FEA910706FB07FC4FEA1C4CA0
:103C00000CFB0BF7B0EBC74072EB573203FB0CF722
:103C100034BFA2EBC742B2EBC74261EB57310CFB9A
:103C20000EF7B0EBC70072EB57720CFB08F734BF0E
:103C3000A2EBC702B2EBC70261EB57714FEA816199
:103C400041EA92114FEA826242EA90124FEA8060A2
:103C500015EB4C2544F100044FEAD13706FB07FC75
:103C60004FEA1C4C0CFB0BF7D21B03FB0CF761EB70
:103C700007010CFB0EF7B0EB074072EB17420CFB91
:103C800008F734BFA2EB0742B2EB074261EB1741E2
:103C90004FEA813141EA92414FEA823242EA904250
:103CA0004FEA80304FEA0C7615EB1C1544F1000406
:103CB00048EA03434EEA0B484FF0000EB2EB080C03
:103CC00071EB030724BF624639464EEB0E0E4FF0F0
:103CD000000B0018524149414BEB0B0BB2EB080CA7
:103CE00071EB03077BF1000B24BF624639464EEBB4
:103CF0000E0E4FF0000B0018524149414BEB0B0BDD
:103D0000B2EB080C71EB03077BF1000B24BF62469A
:103D100039464EEB0E0E51EA020718BF46F0010677
:103D200016EB0E7655F1000254F1000103D5BDE803
:103D30008901BDE80088BDE88901BDE80048B619E1
:103D4000524141EB0101A3F10103704780807F7E66
:103D50007D7C7B7A79787776767574737271717001
:103D60006F6E6E6D6C6C6B6A6A69686867666665B3
:103D70006464636362616160605F5F5E5E5D5D5C41
:103D80005C5B5B5A5A5959585857575656555555B2
:103D90005454535352525251515050504F4F4F4E12
:103DA0004E4D4D4D4C4C4C4B4B4B4A4A4A49494960
:103DB00048484847474747464646454545444444A2
:103DC0004443434343424242424141419C46002BCB
:103DD00030D477002BD04FEA37071CB503B44FF02F
:103DE00010004FF01001BAF1000F06D0BCF1000F27
:103DF000DCBF40F0080040F008014FF000000FBCAD
:103E0000BDE810400BF1010BBBF1010F08BF5FEAE9
:103E1000170722BF12F1010211F101014FF0004119
:103E200043F1000300F0004043EA00007047F9D37B
:103E30005708D0E746EA06464FEA164613F1400F08
:103E40001FDD13F1200FDFBF16430A460021203388
:103E50005B42BED0C3F1200746EA06464FEA16464B
:103E600002FA07F746EA070622FA03F2C3F120072F
:103E700001FA07F742EA070221FA03F14FF00003C3
:103E8000A7E746EA020646EA06464FEA164646EA2B
:103E90000106BCBF46EA0646360C4FF000034FF061
:103EA00000024FF0000194E72DE9804C70B49A466F
:103EB000934691E8380007C831EA400C48BF34EA1D
:103EC000430C03D5FFF7E6FDFFF780FFF0BCBDE82C
:103ED000008C2DE9804C70B49A46934691E83800E6
:103EE00007C810F0804F08BF13F0804F03D100F0D7
:103EF00005F8FFF76BFFF0BCBDE8008C20F07F47B2
:103F000023F07F4C80EA030000F0004007EB0C0335
:103F1000A3F57C53A3F1FE0392F0000F00F0B380F1
:103F200095F0000F00F077802DE901494FEA11402C
:103F300021EA00484FEA144624EA064700FB06FC43
:103F400008FB06F607FB08F818EB06484CEB164C86
:103F500000FB07F718EB07484CEB17404FEA124BF2
:103F600022EA0B4E4FEA154625EA06470BFB06FCF4
:103F70000EFB06F607FB0EFE1EEB064E4CEB164C38
:103F80000BFB07F71EEB074E4CEB174B18EB0B0820
:103F900040F1000018EB0E0B58EB000840F1000058
:103FA0008F1A4FF000014FF000063CBFC943661B5B
:103FB00014BFB5EB040C00213CBFC943F61B4FEA0C
:103FC000174427EA04454FEA1C472CEA074C04FB38
:103FD000076205FB07F70CFB05F616EB074642EBFD
:103FE000174204FB0CFC16EB0C4642EB1C421BEB8D
:103FF000060658EB020241414EEA8E0E46EA9E0644
:1040000001D5BDE80189B619524141EB0101A3F187
:104010000103BDE801894FEA144524EA05464FEA49
:10402000114721EA074C05FB07F406FB07F70CFBD9
:1040300006F111EB074144EB174405FB0CFC11EBB7
:104040000C4144EB1C444FEA124722EA074C05FBA3
:1040500007F206FB07F70CFB06F616EB074642EBEA
:10406000174205FB0CFC16EB0C4642EB1C456A188C
:1040700054F1000148BF7047B619524141EB0101AC
:10408000A3F10103704795F0000F37D04FEA1142BA
:1040900021EA02464FEA144724EA074C02FB07F1E3
:1040A00006FB07F70CFB06F414EB074441EB174142
:1040B00002FB0CFC14EB0C4441EB1C414FEA15478E
:1040C00025EA074C02FB07F506FB07F70CFB06F693
:1040D00016EB074645EB174502FB0CFC16EB0C46AE
:1040E00045EB1C42121951F1000148BF7047B61947
:1040F000524141EB0101A3F1010370474FEA14451E
:1041000024EA05464FEA114721EA074C05FB07F16F
:1041100006FB07F70CFB06F212EB074241EB1741D7
:1041200005FB0CFC12EB0C4251EB1C414FF000065E
:1041300048BF7047921841EB0101A3F1010370479A
:1041400003B401984100009850EAC12018BF042030
:104150004A0D18BF40F0010040F2FF72B2EB515F10
:1041600008BF40F00200012808BF052002B07047D8
:1041700030380A2801D20120704700207047000023
:1041800010B500290AD00878002807D005487844DF
:10419000FDF7D6F9002801D0002010BD0248784470
:1041A00010BD0000FE040000F604000010B5002958
:1041B0000AD00878002807D005487844FDF7C0F9F0
:1041C000002801D0002010BD0248784410BD000036
:1041D000EE040000E6040000F1EE100A4FF6FF7155
:1041E000C0F2C03120EA010040F04070E1EE100A58
:1041F0007047FCF7ADBDFCF7E1BE00000000000019
:10420000000000003031323334353637383941421E
:104210004344454640305800303132333435363728
:1042200038396162636465664030780004000008D4
:1042300000000000000000020001000010303132D8
:1042400033343536373839616263646566787000B7
:1042500030313233343536373839414243444546BC
:104260005850000002400000000000A000000000C4
:1042700005400000000000C8000000000C400000E5
:104280000000409C00000000194000000020BCBE5F
:104290000000000034400000BFC91B8E0000000475
:1042A000B5400000504BCFD06607E2CF01000000C0
:1042B0006C4100003E8251AADFEEA73401000000ED
:1042C000D9420000DCB5A0E23A301F97FFFFFFFFA4
:1042D000B4450000FD25A0C8E9A3C14FFFFFFFFFC3
:1042E000FF3F00000000008000000000FF3F0000D2
:1042F000000000800000000000000000000000003E
:10430000010203040607080900000000010203047B
:10431000424C5F44454255475F4D53473A204368FE
:1043200065636B73756D2076726966696361746924
:104330006F6E206661696C210A00424C5F44454201
:1043400055475F4D53473A20436865636B73756DFE
:1043500020766572696669636174696F6E20737532
:104360006363657373210A00424C5F4445425547BD
:104370005F4D53473A20426F6F746C6F6164657292
:104380005F4A756D705F546F5F557365725F417002
:104390007028290A00424C5F44454255475F4D53FF
:1043A000473A20426F6F746C6F616465725F476556
:1043B000744349445F436D645F48616E646C657229
:1043C00028290A00424C5F44454255475F4D5347F8
:1043D0003A20426F6F746C6F616465725F476574F9
:1043E0005244505F436D645F48616E646C6572282F
:1043F000290A00424C5F44454255475F4D53473AB6
:1044000020426F6F746C6F616465725F47657448BA
:10441000656C705F436D645F48616E646C657228A3
:10442000290A00424C5F44454255475F4D53473A85
:1044300020626F6F746C6F616465725F676574761C
:1044400065725F636D645F68616E646C6572282974
:104450000A00424C5F44454255475F4D53473A205E
:10446000426F6F746C6F616465725F476F546F4128
:104470006464725F436D645F48616E646C65720A68
:1044800000424C5F44454255475F4D53473A2049EF
:104490006E76616C69642074617267657420616412
:1044A00064726573730A00424C5F44454255475F2E
:1044B0004D53473A204A756D70696E6720746F20BE
:1044C00074686520746172676574206164647265E4
:1044D00073730A00424C5F44454255475F4D534752
:1044E0003A20496E76616C696420636F6D6D616E10
:1044F0006420636F64652072656365697665642016
:1045000066726F6D2074686520686F73740A00426C
:104510004C5F44454255475F4D53473A204D5350F9
:104520003A202523780A00424C5F44454255475FB4
:104530004D53473A20546172676574206164647218
:1045400065737320746F206A756D7020746F3A20E4
:104550002523780A00424C5F44454255475F4D533E
:10456000473A2055736572206170706C696361749D
:10457000696F6E2052657365745F48616E646C6527
:1045800072282920616464726573733A2025237848
:104590000A00424C5F44454255475F4D53473A201D
:1045A0004D435520436869702049443A20256420D2
:1045B0002523780A00424C5F44454255475F4D53DE
:1045C000473A20424C5F5645523A20256420252325
:1045D000780A00424C5F44454255475F4D53473A85
:1045E00020524450206C6576656C3A202564202565
:1045F00023780A00424C5F44454255475F4D53477C
:104600003A20427574746F6E2070726573736564BE
:10461000202E2E2E20676F696E6720746F20424C0B
:10462000206D6F64650A0D00424C5F44454255475A
:104630005F4D53473A3A20427574746F6E206E6F27
:10464000742070726573736564202E2E2E20657839
:1046500065637574696E672075736572206170702B
:104660006C69636174696F6E0A0D0000B8470008D9
:104670000000002018000000C4010008D047000816
:1046800018000020C0070000E00100081C00000026
:1046900043000000F8FFFFFF0C0000000E000000C8
:1046A0000F0000002E000000100100004300000079
:1046B000F8FFFFFF00404040404040404040414143
:1046C00041414140404040404040404040404040E7
:1046D0004040404040050202020202020202020281
:1046E000020202020220202020202020202020027E
:1046F000020202020202909090909090101010100E
:1047000010101010101010101010101010101010A9
:10471000020202020202888888888888080808083D
:104720000808080808080808080808080808080809
:104730000202020240000000000000000000000031
:104740000000000000000000000000000000000069
:104750000000000000000000000000000000000059
:104760000000000000000000000000000000000049
:104770000000000000000000000000000000000039
:104780000000000000000000000000000000000029
:104790000000000000000000000000000000000019
:1047A0000000000000000000000000000000000009
:1047B00000000000000000000024F4005152535497
:1047C0005556575A0100000010000000000000007C
:040000050800018965
:00000001FF
